:020000040800F2
:10000000B00C0020A9010008CB1D00082117000832
:10001000C91D0008B5020008712E0008000000008C
:10002000000000000000000000000000B52B0008E8
:10003000B702000800000000CD1D0008B72B000823
:10004000C3010008C3010008C3010008C301000880
:10005000C3010008C3010008C3010008C301000870
:10006000C3010008C3010008C3010008C301000860
:10007000C3010008C3010008C3010008C301000850
:10008000C3010008C3010008C3010008000000000C
:10009000000000000000000000000000C301000894
:1000A000C3010008C3010008C3010008C301000820
:1000B000C3010008C3010008C3010008C301000810
:1000C000C3010008C3010008C3010008C301000800
:1000D000C3010008C3010008C301000800000000BC
:1000E000C3010008C3010008C301000800000000AC
:1000F000000000000000000000000000C301000834
:1001000000000000C3010008C3010008C30100088B
:1001100000000000000000000000000000000000DF
:10012000C3010008C3010008C3010008C30100089F
:10013000C3010008000000000000000000000000F3
:10014000000000000000000000000000C3010008E3
:10015000C3010008C3010008C3010008C30100086F
:10016000C3010008C30100080000000000000000F7
:10017000000000000000000000000000000000007F
:1001800000000000C30100080000000000000000A3
:10019000C3010008DFF80CD000F07AF800480047EF
:1001A00031350008B00C002006488047064800475B
:1001B000FEE7FEE7FEE7FEE7FEE7FEE7FEE7FEE717
:1001C000FEE7FEE75D2C0008950100082DE9F05FD1
:1001D0000546002092469B468846064681464024B6
:1001E0001BE0284641464746224600F041F8534668
:1001F0005A46C01A914110D311461846224600F0C3
:1002000028F82D1A67EB01084F46224601200021ED
:1002100000F01FF817EB00094E41201EA4F1010465
:10022000DFDC484631462A464346BDE8F09FD2B25D
:1002300001E000F8012B491EFBD270470022F6E7CF
:1002400010B513460A4604461946FFF7F0FF20464C
:1002500010BD202A04DB203A00FA02F1002070478A
:100260009140C2F1200320FA03F3194390407047F4
:10027000202A04DB203A21FA02F00021704721FAFB
:1002800002F3D040C2F12002914008431946704762
:10029000064C074D06E0E06840F0010394E80700D3
:1002A00098471034AC42F6D3FFF778FF70E90008A6
:1002B00090E90008FEE770477047000070B50446FB
:1002C00000F0EAF80546601C02D0044800780444B7
:1002D00000F0E2F8401BA042FAD370BD9800002065
:1002E0002DE9F84F00224FF0010803254FF00F0EC3
:1002F0000B6808FA02F42340A34271D14E68012E24
:1003000005D0022E03D0112E01D0122E15D18668F1
:10031000570005FA07FC26EA0C06D1F80CC00CFAC7
:1003200007FC4CEA060CC0F808C04668A6430C79E6
:10033000C4F30014944034434460C668570005FA7F
:1003400007FC8C6826EA0C06BC403443C4604C6849
:10035000022C01D0122C13D1D40800EB8404A34644
:10036000D4F8209054074FEAD46A0EFA0AF629EA24
:1003700006090E6906FA0AF646EA0906CBF8206075
:1003800004680E7924EA0C0406F00306BE402643F6
:1003900006604C68E40056D52E4C266846F480462C
:1003A0002660246822F0030604F4804400942A4C5A
:1003B0003444A446D4F808489607370F0EFA07F6D7
:1003C000B443264EB04201D1002615E0244EB0427F
:1003D00001D1012610E0234EB04202D102260BE0EB
:1003E00031E0214EB04201D1032605E01F4EB0425C
:1003F00001D1042600E00726BE402643CCF8086859
:100400001B4E34684F689C43FF0300D51C43346087
:10041000174E361D34684F689C43BF0300D51C43FC
:100420003460134E083634684F689C43FF0200D591
:100430001C4334600E4E0C3634684F689C43BF0238
:1004400000D51C433460521C102AFFF451AFBDE8A4
:10045000F88F0000443802400030014000000240A4
:100460000004024000080240000C0240001002405C
:10047000003C01400069084000D0012070470AB1EB
:10048000816170470904FBE702480068C0F30B0074
:1004900070470000002004E00148806870470000B9
:1004A00098000020024881680278114481607047FA
:1004B000980000200B4810B5016841F400710160FC
:1004C000016841F480610160016841F4807101605C
:1004D000032000F061F8002000F006F800F024F896
:1004E000002010BD003C024070B50D4D04464FF495
:1004F0007A712878B1FBF0F00A490968B1FBF0F095
:1005000000F0E1FF48B9102C07D200222146501E0E
:1005100000F022F800206C6070BD012070BD00006A
:1005200098000020A40000200A4808B5016841F4A2
:1005300080410160006800F4804000900548001F81
:10054000016841F080510160006800F08050009027
:1005500008BD000044380240F0B40E4B1B680C4646
:10056000C3F30223C3F10705042D00D90425191D87
:10057000072901D2002300E0DB1E012606FA05F15F
:10058000491E214099409E40761E16403143F0BCE2
:1005900002F084BC0CED00E0064900F00702086898
:1005A0004FF6FF03184040EA0220034A1043086058
:1005B000704700000CED00E00000FA052DE9F8435B
:1005C000044600684FF00109C1074FF0000601D151
:1005D000400727D5DFF81C81C8F86860FFF75CFF8B
:1005E0000746454D05E000BFFFF756FFC01B022838
:1005F00057D828680001F7D460688101207A41EA61
:1006000000703D4984310860C8F86890FFF744FFE6
:10061000074604E0FFF740FFC01B022841D82868C6
:100620000001F7D52078800752D533484030016863
:1006300041F0805101600068304D00F08050009022
:10064000286840F480702860FFF726FF074604E022
:10065000FFF722FFC01B022823D82868C005F7D562
:10066000254D7035286810F4407020D0A18901F420
:10067000407181421BD0286820F440712048C0F8A6
:100680000090066029602868C00710D0FFF704FFBB
:10069000064641F2883707E0FFF7FEFE801BB842AE
:1006A00002D90320BDE8F88328688007F4D5E16803
:1006B0001148C1F301220830032A12D0016821F445
:1006C000F81101602868A189C1F30B010843286073
:1006D0002078000703D50B49207CC1F8E0010020F9
:1006E000E0E70268084B22F4F81219400A4302605E
:1006F000E8E7000000004742003802400070004078
:10070000400E474200104742FFFCFF0F2DE9F04723
:100710000E46050065D0DFF81481D8F80000F7B266
:1007200000F00F00B04207D288F80070D8F800003F
:1007300000F00F00B04254D128683D4C810712D51B
:10074000400703D5206840F4E05020602878000777
:1007500003D5206840F4604020602068A96820F03C
:10076000F000084320602878C0072DD03049686821
:100770000839012812D0022813D0032811D00968A3
:10078000890700292DDA216821F003010143216046
:10079000FFF782FE814641F2883A0EE0096889033C
:1007A000EFE709688901ECE7FFF776FEA0EB0901A6
:1007B000514502D90320BDE8F0872068696800F040
:1007C0000C00B0EB810FEFD1D8F80010404601F0DB
:1007D0000F01B14207D90770006800F00F00B04266
:1007E00001D00120E7E72878400705D52068E968AF
:1007F00020F4E050084320602878000706D52068E0
:10080000296920F4604040EAC100206000F018F837
:100810002168084AC1F30311515CC84006490860C9
:1008200006480068FFF760FE0020C4E7003C024075
:10083000083802405FE90008A40000209C00002066
:10084000154810B5006810F00C02144813D0144974
:10085000042A0FD0082A0ED10F4C241F22682368C7
:1008600002F03F025B0207D52068C0F38810A0FBAE
:10087000010106E0084610BD2168C1F38811A1FB03
:1008800000010023FFF7A2FC2168C1F30141491CCC
:100890004900B0FBF1F010BD083802400024F4001C
:1008A00040787D012DE9F84F04006ED02078DFF804
:1008B0003C93C007A9F104054AD009F1040001687E
:1008C000C1F38101012908D00068C0F3810002282A
:1008D0000AD1D9F80000400206D52868800337D530
:1008E00060680028E1D033E06068B0F5803F10D048
:1008F000B0F5A02F286810D020F480302860286838
:1009000020F4802028606068A8B1FFF7C5FD064686
:100910000DE0286840F48030F4E740F4802028603F
:10092000F7E700BFFFF7B8FD801B642873D828687D
:100930008003F7D50CE0FFF7AFFD064605E000BFEA
:10094000FFF7AAFD801B6428F0D828688003F7D43D
:100950002078DFF89C8280074FF0000A3ED5A3483C
:10096000001D016811F00C0F08D00068C0F3810071
:1009700002280BD1D9F80000400207D4286880076C
:1009800016D5E068012800D112E02BE1E068B8B18B
:100990000120C8F80000FFF77FFD064605E000BF14
:1009A000FFF77AFD801B0228C0D828688007F7D59A
:1009B0002868216920F0F80040EAC10028600DE0B5
:1009C000C8F800A0FFF768FD064604E0FFF764FDE5
:1009D000801B02281FD828688007F7D420780007DA
:1009E00022D5824E83486169703671B10121016060
:1009F000FFF752FD074604E0FFF74EFDC01B02283B
:100A000009D830688007F7D50EE0C0F800A0FFF7DE
:100A100043FD074605E082E0FFF73EFDC01B0228CC
:100A20007DD830688007F7D42078400768D5DFF894
:100A3000BCB100270BF13C0BDBF80000C0000BD46D
:100A4000DBF8001041F08051CBF80010DBF800001B
:100A5000012700F080500090674E3068C00510D428
:100A6000306840F480703060FFF716FD009005E0BC
:100A7000FFF712FD0099401A022850D83068C005CF
:100A8000F6D55A4EA0686C3601280FD0052830687C
:100A900010D020F001003060306820F00400306099
:100AA000A068B8B1FFF7F8FC00900FE0306840F0A4
:100AB0000100F4E740F004003060F7E7FFF7ECFCDA
:100AC0000099411A41F28830814266D83068800727
:100AD000F4D50EE0FFF7E0FC009007E0FFF7DCFC48
:100AE0000099411A41F28830814256D83068800717
:100AF000F4D42FB1DBF8001021F08051CBF80010B6
:100B0000A069C8B33949091D0968C1F381010229E7
:100B10004AD00228504607D0C8F8600000E03CE008
:100B2000FFF7BAFC04463BE04746C8F86000FFF711
:100B3000B3FC064605E000BFFFF7AEFC801B0228B1
:100B40002BD828688001F7D4D4E907010843A16AAB
:100B50002A4A490802EB0141626A41EA82110843CC
:100B600094F82C1040EA0161C9F8001001203866A1
:100B7000FFF792FC044606E036E000BFFFF78CFC6E
:100B8000001B022809D828688001F7D52CE000BF97
:100B9000FFF782FC001B022802D90320BDE8F88F72
:100BA00028688001F4D41FE00128F7D0D9F80000AC
:100BB000E26900F48001914214D1226A00F03F0101
:100BC00091420FD147F6C071626A0140914209D14A
:100BD000A26A00F44031914204D1E16A00F07060F1
:100BE000884201D00120D9E70020D7E7043802402D
:100BF00000004742800E4742007000400000FFFFA7
:100C000010B500680B4641680D480140080CD870CB
:100C1000C1F304245C7001F03F049C70C1F34231C5
:100C2000197052B901F0D3F8D870587801F0CFF8A4
:100C30005870987801F0CBF89870002010BD000033
:100C40003FFFFF0010B50B460168896A59600168D3
:100C50000969C1F30E019960006801680E480140FE
:100C6000C1F305401870C1F306245C7001F07F04E5
:100C70009C70402404EA1141D97052B901F0A7F8E0
:100C80001870587801F0A3F85870987801F09FF820
:100C90009870002010BD00007F7F7F0070B50400B9
:100CA00002D0607F10B106E0012070BD00202077E7
:100CB000204600F049F8022060772168CA20486287
:100CC000216853204862204601F096F8FF2504264B
:100CD00018BB206881681B4A1140816021688868C0
:100CE00062681043D4E904231A43104388602168E2
:100CF000E068086120680169228941EA02410161D6
:100D00002068C16821F08001C16020688068800689
:100D100007D4204600F0FEF818B1206845626677D7
:100D2000C2E72068016C21F4802101642068016C15
:100D3000A2691143016420684562012060770020A8
:100D400070BD0000BFFF8FFF00680349884202D1D9
:100D50000249012008607047002800403C0E4742CD
:100D60002DE9F0470446007F0B4601281FD04FF0C5
:100D7000010984F81C9002206077DAB19878D9785C
:100D800040EA014558781978000240EA41300543AD
:100D90002168CA204862216853204862204601F039
:100DA0002BF80026FF274FF0040860BB1AE0022052
:100DB000BDE8F0875878C10603D500F0EF000A308F
:100DC0005870D87801F00CF80204587801F008F84F
:100DD00042EA0022987801F003F80243187842EAC8
:100DE0004035D5E70F480540206845602068C16858
:100DF00021F08001C1602068806880060AD4204606
:100E000000F088F830B12068476284F81D802677AA
:100E10000120CDE72068476284F81D9026770020E6
:100E2000C6E700003FFFFF002DE9F0470446007FC2
:100E30000D46012827D04FF0010A84F81CA002209B
:100E400060772068002680684FEA4060F2B1002891
:100E500000DBEE70A878297840EA01476878E978E5
:100E6000000240EA014007432168CA204862216825
:100E700053204862204600F0BFFF4FF0FF084FF0BC
:100E80000409A0BB16E00220BDE8F087002800DBC3
:100E9000EE70287800F0A4FF0204687800F0A0FF4C
:100EA00042EA0022A87800F09BFF0243E87842EA79
:100EB0000047D9E716480740206807602068816826
:100EC00021F480218160D5E90301084321688A6803
:100ED000104388602068C16821F08001C1602068EB
:100EE000806880060BD4204600F014F838B12168E1
:100EF000C1F8248084F81D9026770120C4E721687A
:100F0000C1F8248084F81DA026770020BCE70000EB
:100F10007F7F7F0070B504460068C16821F0A001A2
:100F2000C160FFF7B9FA05464FF47A7607E000BFD3
:100F3000FFF7B2FA401BB04201D9032070BD206810
:100F4000C0688006F4D5002070BD70B5040005D0DF
:100F50000025A56294F8510010B106E0012070BD93
:100F600084F85050204600F031F8022084F85100F7
:100F70002068016821F040010160D4E901010843C3
:100F8000D4E903121143084361690843218B01F43A
:100F900000710843E1690843216A0843A16A0843D4
:100FA00021680860A069042101EA1040616A0843D1
:100FB000216848602068C16921F40061C1616565EC
:100FC000012084F85100002070BD000010B586B0EB
:100FD000044614216846FFF731F914492068884215
:100FE00021D113480021026842F480420260006867
:100FF00000F4804005900E481038026842F002026A
:101000000260006800F0020005904FF4204000905C
:101010000220CDE9010103200390052004906946D8
:101020000448FFF75DF906B010BD0000003800402D
:1010300040380240000402402DE9F84F0446406861
:101040000025984616460F464FF0040BB0F5827FF8
:1010500001D1A06888B194F85000012818D001206F
:1010600084F85000FFF718FA814694F851004FF0C9
:10107000000A01280ED002257DE084F851B0134605
:101080000A462046CDF8008000F02CF9BDE8F88F24
:101090000220FBE7002F6DD0002E6BD084F851B0FA
:1010A000C4F854A0A763A687E687C4F830A0A4F8C4
:1010B00034A0A4F836A0C4F840A0C4F844A0A068A6
:1010C000B0F5004F04D12068016821F4804101602F
:1010D00020680168490603D4016841F040010160BD
:1010E000E068D8B139E020688168C90709D0007B81
:1010F000A16B0870A06B401CA063E08F401EE087CE
:101100000CE0FFF7C9F9A0EB0901414503D3B8F1A1
:10111000FF3F03D036E0B8F1000F33D0E08F002856
:10112000E1D11DE020688168C90709D0C068A16BC2
:101130000880A06B801CA063E08F401EE0870CE05D
:10114000FFF7AAF9A0EB0901414503D3B8F1FF3F2E
:1011500003D017E0B8F1000F14D0E08F0028E1D1E0
:101160004A464146204600F064FE08B120206065F2
:10117000606D00B10125012084F8510084F850A071
:10118000284683E70325F6E72DE9F84F044690F853
:10119000500000271D461646894601280DD04FF005
:1011A000010B84F850B0FFF777F9804694F85100AE
:1011B000BA46012804D002278EE00220BDE8F88F4D
:1011C000B9F1000F7DD0002E7BD0032084F85100B0
:1011D000C4F854A0C4F83090A686E686C4F838A0B7
:1011E000A4F83CA0A4F83EA0C4F844A0C4F840A0D1
:1011F000A068B0F5004F04D12068016841F4804137
:10120000016020680168490603D4016841F040018B
:101210000160E068B0F5006F606803D030B3012E64
:1012200024D040E008B1012E1CD1206B2168008839
:10123000C86006E020688168890709D5216B0988A4
:10124000C160206B801C2063E08E401EE08609E0B8
:10125000FFF722F9A0EB0800A84202D3681C01D0D6
:1012600031E07DB3E08E0028E4D11FE0206B2168DF
:101270000078087306E020688168890709D5216B2A
:1012800009780173206B401C2063E08E401EE086CD
:1012900009E0FFF701F9A0EB0800A84202D3681C9F
:1012A00001D010E075B1E08E0028E4D14246294615
:1012B000204600F0EDFD08B120206065A06820B157
:1012C00007E008E0FFE7032706E02068C1688068C0
:1012D0000090606D00B1012784F851B084F850A0EF
:1012E00038466BE72DE9F84F044690F85000002788
:1012F0000A9E1D4692468B464FF0010901280ED0EA
:10130000012084F85000FFF7C7F8804694F8510098
:10131000616801280CD0B1F5827F07D102E002207C
:10132000BDE8F88FA16809B9042801D00227C2E0FE
:10133000BBF1000F27D0BAF1000F24D01DB394F8F1
:101340005100042802D0052084F851000020606577
:10135000C4F838A0E587A587C4F830B0E586A5862F
:101360002064606420680168490603D4016841F084
:1013700040010160E068B0F5006F606805D0E8B337
:10138000012D46D07FE0012795E008B1012D39D12C
:10139000206B21680088C860206B801C2063E08E71
:1013A000401EE0862EE02068816889070FD5E18E17
:1013B00069B1B9F1010F0AD1216B0988C160206BB5
:1013C000801C2063E08E401EE0864FF000092068FC
:1013D0008168C9070CD0E18F51B1C068A16B08804A
:1013E000A06B801CA063E08F401EE0874FF00109D6
:1013F000FFF752F8A0EB0800B04200E009E001D38B
:10140000701C50D1E08E0028CDD1E08F0028CAD1C9
:101410003FE0206B216800780873206B401C20633C
:10142000E08E401EE0862EE02068816889070FD597
:10143000E18E69B1B9F1010F0AD1216B097801730D
:10144000206B401C2063E08E401EE0864FF00009B8
:1014500020688168C9070CD0E18F51B1C068A16BC9
:101460000870A06B401CA063E08F401EE0874FF027
:101470000109FFF711F8A0EB0800B04202D3701C7D
:1014800001D010E07EB1E08E0028CDD1E08F0028A1
:10149000CAD142463146204600F0FAFC28B1012765
:1014A0002020606507E0032705E0A06818B92068E0
:1014B000C16880680090012084F85100002084F801
:1014C000500038462CE710B5401EB0F1807F01D3A4
:1014D000012010BD4FF0E02460610F21601701F082
:1014E000DDFC0020A06107202061002010BD00006D
:1014F00070B590F83C20012A2CD0012480F83C40A3
:10150000022280F83D2003685A689D6822F0700628
:101510000A6832435A60104B02689A420ED0B2F108
:10152000804F0BD00D4B9A4208D00D4B9A4205D0FC
:101530000C4B9A4202D00C4B9A4204D1496825F0D8
:1015400080031943916080F83D40002180F83C10F1
:10155000084670BD022070BD00000140000400403C
:1015600000080040000C00400040014010B586B06B
:10157000044614216846FEF761FE2068B0F1804FF2
:1015800016D10C480021026842F001020260006896
:1015900000F0010005904FF4004000900220CDE9DA
:1015A00001010120CDE9031069460348FEF798FECA
:1015B00006B010BD303802400000024070B504464D
:1015C00090F83C000D4601280DD0012684F83C60BF
:1015D000022084F83D0042B1042A18D0082A2AD0FB
:1015E0000C2A4DD139E0022070BD206801F09EFB2D
:1015F0002068816941F0080181612068816921F0DA
:1016000004018161206881692A69114311E0206821
:1016100001F0B4FB2068816941F4006181612068B8
:10162000816921F480618161206881692A6941EAC8
:101630000221816124E0206801F0CCFB2068C169AF
:1016400041F00801C1612068C16921F00401C16154
:101650002068C1692A69114311E0206801F0E6FBA6
:101660002068C16941F40061C1612068C16921F449
:101670008061C1612068C1692A6941EA0221C161B2
:1016800084F83D60002084F83C0070BD10B5040073
:1016900003D094F83D0010B107E0012010BD0020F8
:1016A00084F83C00204600F00DF8022084F83D004C
:1016B000211D206801F0E0FA012084F83D0000209F
:1016C00010BD000008B50068B0F1804F08D1054892
:1016D000016841F001010160006800F00100009024
:1016E00008BD00004038024010B5044600680122E1
:1016F00001F00EFB09492068884203D1416C41F496
:10170000004141642068816801F00701062903D087
:10171000016841F001010160002010BD000001409E
:10172000FEE7000001480068406B7047700600202B
:101730002DE9F0410D462DED028B0146FFF7F2FF3A
:101740000446884231D0002D2FD000EE104A00EE22
:10175000901A01EE105AB8EE400AF8EE600AB8EEA0
:10176000411A70EE600A9FED130A30EE410A80EED6
:10177000808AFEF791FE104F06460120FEF79EFD7F
:10178000FEF78AFE801B00EE100A3A68F8EE400A67
:1017900000EE104AB8EE400A00EE880ABCEEC00A1D
:1017A00010EE101A5163A842E7D3BDEC028BBDE8DE
:1017B000F081000000000000700600202DE9FF4FBE
:1017C00085B01D46059804906548DDF848B0904600
:1017D00006880C4689460C2B18D0082715FB07F005
:1017E000400001F017FF824603A95E4800F0CEFDDD
:1017F00002A95C4800F0D2FDA8F12000C0B2079019
:101800000020BBF1000F014602D098E00627E5E773
:10181000DFF84CE14AE00C2D0ED0534A079B02EB57
:1018200003120023525C21F0010B009313060AD52A
:1018300073BAAEF800300CE0079A02EB42034B4A51
:1018400002EB8302EDE7BEF802C09CFA9CFCAEF806
:1018500000C007FB00FC0AEB4C08401CBEF800303F
:1018600080B228F80B30A84200D300205206641C36
:10187000029B120EA4B29C4203D300BFAEF80060DC
:1018800047E0A4EB0903AB4208D1059A039B521C25
:1018900092B24C4605929A42F0D205E0009B5B1C46
:1018A000DBB20093082BC1D3491CC9B2A942B2D301
:1018B00047E00C2D33D02C4A079B02EB03124FF06C
:1018C000000B525C21F0010E130608D5244B07FBD8
:1018D00000FC0AEB4C081B885BBA28F80E30401C51
:1018E00080B2A84200D300205206641C029B120E54
:1018F000A4B29C420BD2A4EB0903AB4216D1059AC9
:10190000039B521C92B24C4605929A4215D314483E
:101910000680504601F018FD09B0BDE8F08F079A27
:1019200002EB4203114A02EB8302C8E70BF1010309
:1019300003F0FF0BBBF1080FC6D3491CC9B2A94283
:10194000B7D30C2D09D00820CDE9000553464A46EF
:101950000448049900F080FCD9E70620F4E7000071
:1019600000000020B00000202C3B0008B836000822
:101970002DE9F84F044600F0FF0910190D46DDE986
:101980000AB61FFA80F8581987B24FF0000A12E021
:10199000444503D305EB0B004C4685B2BD420FD244
:1019A0005B4629462046CDF800A0FFF707FF04EB71
:1019B0005B0084B2761C3278A2F120005E28E7D961
:1019C000BDE8F88F2DE9F04F6A4C4FF0000887B062
:1019D0000120C4F808802073454684F80D806649CC
:1019E000664800F06DFF664E224605213368634865
:1019F00098476149B268091F60489047DFF884A1A1
:101A0000DAF8000045630022B56A5F4B11465B4877
:101A1000A847FEF741FD05460DF1080BDFF86C9174
:101A200051E00A20FEF74AFCFEF736FD401BB0F5F8
:101A30007A7F0CD8FEF730FD401B642148434FF4F9
:101A40007A71B0FBF1F0DAF8001048633BE0FEF782
:101A500023FD411B40F6B83081422DD8FEF71CFD16
:101A6000401B0A21A0F57A70B0FBF1F248A102A850
:101A700001F000FA1021CDE9001B20880B4682B24C
:101A80001E3880B20121FFF773FFFEF705FD401BF2
:101A90002168A0F57A7048434FF4FA61B0FBF1F386
:101AA0004FF6FF710320CDE9000162680021B76B9A
:101AB0003248D21EB84706E0FEF7EEFC411B40F666
:101AC000B83081420AD801214F464846FEF7D2FC81
:101AD0000028A6D102E00A20FEF7F0FB01213846DB
:101AE000FEF7C8FC0028F6D04FF496710020FFF7EF
:101AF0001FFE6168CDE900180022B56B236811460E
:101B00001E48A84724A102A801F0B4F91026CDE987
:101B1000006B2088042182B25D4633460846FFF7F9
:101B200027FFFEF7B1FC02461FA102A801F0A2F9AF
:101B3000CDE900652088102382B216210420FFF72A
:101B400017FF0D481CA10838426802A801F092F95D
:101B5000CDE900652088102382B228210420FFF7F8
:101B600007FF4FF416714FF4FA70FFF7E1FD07B06D
:101B7000BDE8F08FE805002008000020B00000203C
:101B800028000020700600201C41000800000240D0
:101B9000253033640000000057654163742053749E
:101BA0007564696F0000000053544D333246347839
:101BB00078203078255800004C43442049443A307E
:101BC00078255800F0B587B014216846FEF736FB3B
:101BD00029480024016841F004010160016801F016
:101BE00004010591016841F080010160016801F084
:101BF00080010591016841F001010160016801F077
:101C000001010591016841F00201016000681B4E6D
:101C100000F002004FF4005505900022294630469E
:101C2000FEF72DFC164F002269113846FEF727FCFF
:101C300001224FF4C0613846FEF721FC00950125D2
:101C4000CDE90154694630460394FEF749FBCDE9DE
:101C50000054694638460295FEF742FB4FF4E060B7
:101C6000CDE900050320CDE9024069463846FEF77C
:101C700037FB07B0F0BD00003038024000080240DA
:101C80000000024010B586B014216846FEF7D6FA6F
:101C90001D4800241B490594C0E900147F21816080
:101CA000FF21C0E9031444618461FEF7F7FF08B126
:101CB000FEF702FB12208DF800008DF801408DF830
:101CC00002400394012269460F480494FFF7ACF8E0
:101CD00008B1FEF7F1FA01208DF8140009218DF802
:101CE00015108DF8160020208DF81700012205A987
:101CF0000548FFF735F8002801D0FEF7DDFA06B0F9
:101D000010BD000000280040F8050020114810B563
:101D10000F4901604FF4827141604FF400418160CE
:101D20000021C1604FF400720161C0E90512082270
:101D3000C0E90721416281620A21C162FFF705F90A
:101D4000002803D0BDE81040FEF7B6BA10BD000071
:101D5000003800401806002010B58AB0002407940F
:101D60001C2168460894FEF769FA16484FF0804136
:101D700001600921C0E901144FF47A71C0E903142C
:101D80008461FFF783FC08B1FEF796FA079407A970
:101D90000C480894FFF7ACFB08B1FEF78DFA602001
:101DA000CDE900040220029000226946049405480F
:101DB000FFF704FC08B1FEF77FFA0248FFF7D6FBF5
:101DC0000AB010BD70060020FEE770477047010999
:101DD00001EB810100F00F0000EB4100C0B2704741
:101DE000002102E00A38C0B2491C0A28FAD20907C9
:101DF00040EA11607047000070B504460068C16891
:101E0000490614D44FF0FF31C160FEF745FB05468B
:101E10004FF47A7607E000BFFEF73EFB401BB0426E
:101E200001D9032070BD2068C0684006F4D50020A9
:101E300070BDF8B5044640684FF48273984221D1D2
:101E4000A0684FF48065B0F5004F01D0A8420AD1D8
:101E50002068066826F0400606606068984211D146
:101E6000A068A8420ED000920B4600228021204696
:101E700000F03AF8002804D0606D40F02000606562
:101E80000320F8BD00920B4600220121EFE700007D
:101E900038B504461248134B0068B0FBF3F04FF41A
:101EA0007A73584300906068B0F5827F0DD10B467D
:101EB000009200228021204600F016F870B1606D7B
:101EC00040F020006065032038BD009830B1401E0E
:101ED000009020688068C0430006F6D5002038BD19
:101EE000A400002000366E012DE9F0411D46174682
:101EF0000E460446DDF8188008E0681C06D0FEF7A0
:101F0000CBFAA0EB0800A8420BD255B1206880683C
:101F100036EA000030D00020B842EED10020BDE803
:101F2000F0812068416821F0E00141606068B0F50F
:101F3000827F0BD1A068B0F5004F02D0B0F5806F62
:101F400004D12068016821F040010160A06AB0F569
:101F5000005F09D12068016821F400510160206808
:101F6000016841F400510160012084F85100002013
:101F700084F850000320D2E70120CDE7002070470D
:101F8000F8B5044600208DF80000034604F1200057
:101F90006A461321054601F088FB06460A212046C1
:101FA00000F004FA00236A462821284601F07DFB50
:101FB00006440A21204600F0F9F900236A4636213A
:101FC000284601F072FB84190A480B49027B80689D
:101FD00001EBC00000790AB940F008008DF800005C
:101FE00001226946284601F059FB001901D04FF043
:101FF000FF30F8BDE805002078000020F8B5044661
:1020000000208DF80000034604F120006A461321E9
:10201000054601F04AFB06460A21204600F0C6F9B3
:1020200000236A462921284601F03FFB06440A2185
:10203000204600F0BBF900236A463621284601F00D
:1020400034FB84190A480B49027B806801EBC0000D
:1020500000790AB940F008008DF8000001226946B5
:10206000284601F01BFB001901D04FF0FF30F8BDEE
:10207000E8050020780000202DE9FF4F987AD97AF2
:102080005D7B00EB0120197B5F7D090401EB05619D
:102090000144987CDD7C93F819C000EB05201D7D80
:1020A00093F805802D0405EB07650544987DDF7DD9
:1020B00083B000EB07201F7E00243F0407EB0C6772
:1020C00038449F7893F803C0264607EB0C2793F813
:1020D00004C04FEA0C4C0CEB086C6744A7EB010AF8
:1020E000DFF8C8805F182B46D8F804100090891AD2
:1020F000091A8B460A46DDE9030100F06DFC651EF6
:10210000F0BB98F80C00DFF8A890D8F80810002869
:1021100019F8310001D140F008008DF8040003984F
:102120000123203001AA3621009001F0BEFA38BB0D
:10213000DDE903015A4600F0F7FB08BB78788DF81B
:10214000080038788DF80900022202A9009801F0F1
:10215000A5FA08B12C4603E0B61CBF1C5645EDD3CA
:1021600098F80C00D8F80810002809EBC100464682
:10217000007901D140F008008DF80400012300E04F
:102180000EE001AA3621009801F08FFA40B970687C
:102190000090002211463368039800F01DFC00B146
:1021A0002C4607B02046BDE8F08F0000E80500206F
:1021B000780000202DE9F0411D46134B8046002495
:1021C0001B684819069F661E984218D8404600F0C2
:1021D000ABFBA0B90020C7F307220C49FBB205E016
:1021E00001F8102001EB4007401C7B70A842F7D398
:1021F0006A00064908F1200001F050FA00B13446A7
:102200002046BDE8F0810000E805002068030020BA
:102210002DE9F05F8A460F491E468346496800252E
:102220009019DDF8289017464FF0FF38884208D8FB
:10223000002409E03A194B465146584600F08CFC00
:1022400008B1454602E0641CB442F3D32846BDE819
:10225000F09F0000E80500202DE9FF5F1E48DDE942
:102260000E6791468B46026831444FF000081C46C9
:102270004FF0FF3A914204D8406809EB07018142D0
:1022800001D9D04623E000251FE000BF09EB05027D
:102290005946009800F048FBA8B900200F4909E012
:1022A00014F8012B01F8102001EB400314F8012B66
:1022B0005A70401CB042F3D3009872000749203096
:1022C00001F0ECF900B1D0466D1CBD42DED304B084
:1022D0004046BDE8F09F0000E8050020E80000202F
:1022E0002DE9F84F0026DDE90A7899468A468346AB
:1022F000144635460DE04B46224651465846CDF829
:102300000080FFF757FF10B14FF0FF3603E0641C69
:102310006D1CBD42EFD33046BDE8F88F4FF0FF3063
:102320007047000002488068086000207047000085
:10233000E8050020FEB51C46054600F0F5FA064605
:1023400005F1200002AA2E21054601F099F9064464
:10235000012202A9284601F09AF9064401226946A1
:10236000284601F094F90644012201A9284601F00B
:102370008EF99DF800109DF80420801901EB0221D0
:10238000216001D04FF0FF30FEBD00000248006820
:102390000860002070470000E805002002484068FF
:1023A0000860002070470000E805002070B5054671
:1023B000C0690E4680470446E8698047001BB0426A
:1023C000FAD3002070BD2DE9F74F82B05FEA000814
:1023D0007DD04FF0000B08F120005F468DF800B073
:1023E0005B466A460121019001F05FF904467821BD
:1023F0004046FFF7DBFF8DF8007001236A4611218C
:10240000019801F052F9044400236A46B121019871
:1024100001F04BF9051901248DF800402246694668
:10242000019801F03BF946192C258DF80050012246
:102430006946019801F032F900EB06094FF02D0AC8
:1024400056468DF800A001226946019801F026F950
:1024500081448DF8004001236A46B221019801F0C1
:1024600024F981448DF8005001226946019801F059
:1024700015F981448DF8006001226946019801F048
:102480000DF981448DF8004001236A46B32101987B
:1024900001F00BF981448DF8005001226946019842
:1024A00001F0FCF881448DF8006001226946019832
:1024B00001F0F4F881448DF800400122694601984A
:1024C00001F0ECF800EB09048DF8005000E0C0E1E9
:1024D00001226946019801F0E1F804448DF800609A
:1024E00001226946019801F0D9F8044407258DF8C6
:1024F000005001236A46B421019801F0D6F8044443
:10250000A2208DF8000001236A46C021019801F045
:10251000CCF8044402268DF8006001226946019837
:1025200001F0BCF8044484208DF8000001226946C3
:10253000019801F0B3F80444C5208DF80000012390
:102540006A46C121019801F0B0F804440A208DF8D0
:10255000000001236A46C221019801F0A6F8044454
:102560008DF8007001226946019801F097F8044443
:102570008A278DF8007001236A46C321019801F073
:1025800094F804442A208DF800000122694601983D
:1025900001F084F804448DF8007001236A46C421D8
:1025A000019801F082F80444EE208DF80000012229
:1025B0006946019801F072F804440E208DF800007D
:1025C00001236A46C521019801F06FF8044404987C
:1025D0004FF000036A46007B00287ED0202101983E
:1025E00001F063F80444012303AA3A21019801F0A1
:1025F0005CF80444B1468DF8006001236A46E0218E
:10260000019801F052F804441C208DF800000122CA
:102610006946019801F042F804448DF80050012207
:102620006946019801F03AF8044412208DF8000040
:1026300001226946019801F031F8044437208DF8F1
:10264000000001226946019801F028F80444322074
:102650008DF8000001226946019801F01FF804443A
:1026600029268DF8006001226946019801F016F8CC
:1026700004448DF800A001226946019801F00EF88B
:1026800004448DF8006001226946019801F006F8C3
:10269000044425208DF8000001226946019800F0CD
:1026A000FDFF04442B208DF80000012269460198AB
:1026B00000F0F4FF044439208DF80000012269463F
:1026C000019800F0EBFF07195C468DF800B001227D
:1026D0006946019800F0E2FF00E0BFE007440120F6
:1026E0008DF8000002466946019800F0D7FF0744C4
:1026F0004FF0030B8DF800B001226946019800F0FD
:10270000CDFF074410208DF8000001226946019892
:1027100000F0C4FF07448DF800B001236A46E121B0
:10272000019800F0C2FF07441D208DF8000001222F
:102730006946019800F0B2FF07448DF8005001226D
:102740006946019800F0AAFFC51906208DF800001F
:1027500001226946019800F0A1FF47192E258DF846
:10276000005001226946019800F098FF07442C2090
:102770008DF8000001226946019800F08FFF0744A0
:102780008DF8006001226946019800F087FFC619A4
:102790008DF800A001226946019800F07FFF0644F1
:1027A0008DF8005001226946019800F077FF064439
:1027B0008DF8005001226946019800F06FFF8519DD
:1027C00037208DF8000001226946019800F066FF6D
:1027D00005443F208DF8000001226946019800F071
:1027E0005DFF05448DF8004001226946019800F024
:1027F00055FF05448DF8004001226946019800F01C
:102800004DFF05448DF8009001226946019800F0C3
:1028100045FF054410208DF800000122694601980B
:1028200000F03CFF05448DF8004001236A46132167
:10283000019800F03AFF441901236A4629210198C2
:1028400000F033FF04444046049900F041F90019B8
:1028500001D04FF0FF3005B0BDE8F08F2121BEE67A
:1028600070B50D4620300E4ADA21064600F008FF0A
:1028700098B90B4CDB21621C304600F001FF60B9B7
:10288000A21CDC21304600F0FBFE30B9B4F8010098
:10289000217840BA61F31F402860002070BD00001D
:1028A0007400002030B40C460369204630BC114649
:1028B000184730B40C468369204630BC114618478F
:1028C00010B54FF0FF32D8B10B6803604C6844601C
:1028D0000C890481CC68C4600C6904614C69446152
:1028E0008C698461C969C161064941620649016216
:1028F000064981620649C0E90B100BB198470246B0
:10290000104610BDA5280008A12B000815290008B5
:10291000B328000830B40C464369204630BC114649
:1029200018474FF0FF307047F8B50D462949144657
:102930008B680A7B497B012B07D8012909D10AB191
:10294000183506E0641C1A3503E0012901D1E2B311
:102950001834203000236A462A21064600F0A5FEDE
:102960000746280A8DF8000001226946304600F02B
:1029700095FE07448DF8005001226946304600F06C
:102980008DFEC51900236A462B21304600F08DFECE
:102990000544200A8DF8000001226946304600F007
:1029A0007DFE05448DF8004001226946304600F066
:1029B00075FE441900236A462C21304600F075FE4E
:1029C000001901D04FF0FF30F8BDFFE71A346D1C3D
:1029D000BFE70000E80500202DE9F8430D463B491C
:1029E0001F4614468B680A7BDDF82090497B012B3B
:1029F00007D801290AD10AB1183507E0641C1A3535
:102A000004E0012902D1002A5CD0183420300023D0
:102A10006A462A21804600F048FE0646280A8DF8BC
:102A2000000001226946404600F038FE06448DF859
:102A3000005001226946404600F030FE3D44064405
:102A40006D1E280A8DF8000001226946404600F0FC
:102A500025FE06448DF8005001226946404600F0EC
:102A60001DFE851900236A462B21404600F01DFEFD
:102A70000544200A8DF8000001226946404600F016
:102A80000DFE05448DF8004001226946404600F0E5
:102A900005FE4C440544641E200A8DF80000012206
:102AA0006946404600F0FAFD05448DF800400122D9
:102AB0006946404600F0F2FD401901D04FF0FF306A
:102AC000BDE8F8831A346D1CA0E70000E80500207B
:102AD0007CB505468E685022A020497B1C4C802383
:102AE0002EB1012E03D001290BD069B10EE00129CE
:102AF00001D019B10AE0C4E9002007E0C4E90030C0
:102B000004E0C4E9000201E0C4E900036068009049
:102B10000022114628462368FFF75EFF217B064608
:102B200000290C48A16800EBC100007901D140F0F8
:102B300008008DF80400012301AA362105F12000C8
:102B400000F0B3FD801901D04FF0FF307CBD0000D4
:102B5000E805002078000020F8B506464FF6FF7023
:102B600000EA032040EA1320ADF800000B480024DF
:102B7000651E03688B420DD9406890420AD93046E1
:102B8000FFF7D2FE30B90222694606F1200000F0BC
:102B900085FD00B12C462046F8BD0000E805002068
:102BA000F0B414460D46C66821462846B446F0BC2B
:102BB0001A4660477047FDF775BC000030B597B006
:102BC00030216846FDF73AFB14210CA8FDF736FBCF
:102BD000142111A8FDF732FB1E480025016841F0C1
:102BE00080510160006800F0805016901A4801681A
:102BF00021F4404141F4004101600068022400F4E6
:102C000040401690092000904FF480300190012040
:102C1000CDE905048005079019200890A820CDE98A
:102C2000090404200B906846FDF73CFE0CA90F2018
:102C300081E83100E002CDE90F0502210CA8FDF783
:102C400065FD20021490119411A8FDF7B7FC17B090
:102C500030BD000040380240007000400548016867
:102C600041F47001016003494FF000608039086051
:102C70007047000088ED00E0F0B502681D4B1E4C67
:102C80009F031E4D1E4E984207D0B84205D0A04269
:102C900003D0A84201D0B04204D122F0700C4A689F
:102CA00042EA0C02984210D0B8420ED0A0420CD09A
:102CB000A8420AD0B04208D0124CA04205D0124C13
:102CC000A04202D0114CA04203D122F44074CA6841
:102CD00022434C6922F08002224302608A68C26269
:102CE0000A688262984201D1096901630121416148
:102CF000F0BD00000000014000040040000800405A
:102D0000000C0040004001400044014000480140E8
:102D100010B501F01F030121046A99408C4304623D
:102D2000016A9A401143016210BD000030B5026A89
:102D300022F001020262026A4368846924F073058A
:102D40000C682C4322F002058A682A430A4DA842E7
:102D50000BD122F00805CA6823F440732A434D6959
:102D600022F004021D438B692B4343608461496850
:102D70004163026230BD00000000014030B5026ACC
:102D800022F010020262026A436884690D6824F42A
:102D9000E64444EA05248D6822F0200242EA051246
:102DA0000B4DA8420ED1CD6822F0800242EA0512F6
:102DB0004D6923F4406343EA85038D6922F04002A4
:102DC00043EA85034360846149688163026230BDE0
:102DD0000000014030B5026A22F480720262036A88
:102DE0004268C46923F4007324F073050C682C4313
:102DF0008D6843EA05230C4DA8420ED1CD6823F41B
:102E0000006343EA05234D6922F4405242EA051269
:102E10008D6923F4806342EA05124260C461496807
:102E2000C163036230BD00000000014030B5026A9A
:102E300022F480520262046A4268C3690D6823F476
:102E4000E64343EA05238D6824F4005444EA05343C
:102E5000064DA84204D14D6922F4804242EA85120F
:102E60004260C36149680164046230BD00000140F2
:102E7000FEE700000FB4084B10B504A902AA03989E
:102E800000F02CF8044602A9002000F058FA204671
:102E900010BC5DF814FB00003F3300080907090E61
:102EA000002804DB00F1E02080F80014704700F0F7
:102EB0000F0000F1E02080F8141D704702E008C800
:102EC000121F08C1002AFAD170477047002001E0A4
:102ED00001C1121F002AFBD1704700002DE9FF4FEE
:102EE0008DB00F460546002606E025280BD0DDE90B
:102EF0000F1290476D1C761C28780028F5D111B070
:102F00003046BDE8F08F0024A246A1460122EC49DC
:102F100000E0044315F8013F203B02FA03F00842A9
:102F2000F7D128782A2810D06FF02F022878A0F146
:102F30003001092914D80AEB8A0102EB410144F05F
:102F4000020400EB010A6D1CF0E701CF5FEA000A02
:102F500003D544F40054CAF1000A44F002046D1C85
:102F600028782E2817D115F8010F44F004042A28D8
:102F70000ED06FF02F022878A0F1300109290AD86D
:102F800009EB890102EB410100EB01096D1CF2E73D
:102F900057F8049B6D1C28786C280FD006DC4C2851
:102FA00017D068280DD06A2814D104E0742810D0F6
:102FB0007A280FD10DE044F400140AE044F48014A0
:102FC00001E044F440146978814202D104F5801490
:102FD0006D1C6D1C2A786E2A1FD00CDC632A31D040
:102FE00004DC002A8BD0582A11D1A3E0642A68D0CF
:102FF000692A0CD165E0732A2ED004DC6F2A73D0C5
:10300000702A04D19BE0752A6FD0782A6ED01046C2
:10301000DDE90F129047761C50E1C4F302500228FC
:1030200006D0032809D0042801CF09D0066045E165
:1030300001CFF117C0E9006140E101CF06803DE119
:1030400006703BE117F8040B8DF8000000208DF8A6
:103050000100EB46012003E057F804BB4FF0FF30BE
:1030600061074FF0000102D40DE008F1010188462C
:1030700049450FDA8045F8DB1BF808100029F4D128
:1030800008E008F1010188468142FADB1BF80810CC
:103090000029F6D1DDE90F23AAEB0800814621467D
:1030A00000F036F9304400EB080604E0DDE90F12C9
:1030B0001BF8010B9047B8F10108F7D221464846AA
:1030C000F7E00A21C4F302534FF0000B0891022BE2
:1030D00004D001CFC117032B09D00AE0FF1D27F050
:1030E0000707F7E8020108E032E01FE020E000B245
:1030F000C117042B01D140B2C117031E71F10003A7
:1031000007DA4FF0000CD0EB0C006CEB01012D2323
:1031100002E0230504D52B238DF82430012303E09E
:10312000E30701D02023F7E7984658E00A2110E092
:1031300010210EE010204FF0000B08900CE0102141
:103140004FF0000B44F004044FF00809089103E02D
:1031500008214FF0000B0891C4F30253022B04D056
:1031600001CF0021032B06D006E0FF1D27F0070743
:10317000F7E8020103E080B2042B00D1C0B24FF0A7
:10318000000823072BD5702A07D0DDF820C08CF06B
:10319000100C5CEA0B0C05D00EE040238DF82430B7
:1031A000012308E050EA010306D030238DF82430D3
:1031B0008DF8252002239846DDF820C08CF0080CFD
:1031C0005CEA0B0C0BD150EA010301D1630706D571
:1031D00030238DF824304FF00108A9F10109582A55
:1031E00004D038A20B9208AA0A920BE03AA2F9E79F
:1031F0005B46089AFCF7EAFF0B9B9B5C0A9A521EFF
:103200000A92137050EA0102F2D10A98ADEB000065
:1032100000F1200B600702D524F4803401E04FF068
:103220000109D94502DDA9EB0B0000E0002000EB0D
:103230000B0141440890AAEB010AE00306D4DDE942
:103240000F232146504600F063F806444FF0000972
:1032500008E009A911F80900DDE90F12904709F10A
:103260000109761CC145F4DBE0030CD5DDE90F2331
:103270002146504600F04CF8064404E0DDE90F1208
:1032800030209047761C0899481E08900029F5DCEC
:1032900008E00A980A990078491C0A91DDE90F12A2
:1032A0009047761CBBF10001ABF1010BF1DC21462C
:1032B0005046DDE90F2300F019F806446D1C1BE6AB
:1032C00009280100303132333435363738396162FC
:1032D00063646566000000003031323334353637C0
:1032E0003839414243444546000000002DE9F04191
:1032F000044600251E461746880404D405E03946D6
:103300002020B0476D1C641EF9D52846BDE8F08129
:103310002DE9F041044600251E469046C80301D51C
:10332000302700E02027880404D505E041463846D0
:10333000B0476D1C641EF9D52846BDE8F0810A68C7
:10334000531C0B601070704710B5002821D0114B32
:103350000022001F196803E0814203D80A46496829
:103360000029F9D152B11368841A9C4204D1006833
:1033700018441060104602E0506000E0186039B157
:1033800002680B1A934203D10B681A440260496821
:10339000416010BDA8000020FDF77EB870B50B4E4F
:1033A00000244FF48075224629463046FDF767F821
:1033B0000520FCF783FF012229463046FDF75FF820
:1033C00000210348FEF790F9204670BD000002403E
:1033D000700600202DE9F341164E88464FF48065B3
:1033E000002229463046FDF74AF86C10002221469B
:1033F0003046FDF744F86423012269460E48FDF784
:10340000C3FE0746012221463046FDF738F84FF447
:10341000FA73012241460848FDF70EFEC419012245
:1034200029463046FDF72BF8604294FBF0F0BDE8EA
:10343000FC81000000000240180600202DE9F04148
:103440000D4E0C4607464FF4806500222946304653
:10345000FDF715F8A2B24FF4FA7339460748FDF7A5
:10346000EBFD0446012229463046FDF708F860428C
:1034700094FBF0F0BDE8F081000002401806002047
:103480002DE9F0410D4E0C4607464FF480650022B1
:1034900029463046FCF7F3FFA2B2642339460848B8
:1034A000FDF772FE0446012229463046FCF7E7FF8D
:1034B000604294FBF0F0BDE8F081000000000240A3
:1034C000180600202DE9F743174E154689464FF49C
:1034D0008068002241463046FCF7D1FF7715002274
:1034E00039463046FCF7CBFF6423012269460F487A
:1034F000FDF74AFE0446012239463046FCF7BFFF7D
:103500003DB1AAB24FF4FA7349460848FDF73CFEB4
:103510000444012241463046FCF7B1FF604294FB6F
:10352000F0F0BDE8FE830000000002401806002015
:103530008EB0FCF7BFFFFFF741FBFEF743FBFEF742
:10354000E5FBFEF79FFBFEF707FCFEF73BFA1025B5
:10355000DFF88C8007AC6E0240F2F3190CAF02A9C1
:1035600000222048FDF76EFB002239461D48FDF77A
:1035700047FB9DF80A009DF809309DF80820C00718
:1035800001D019A100E01CA107A8FFF773FCCDE949
:1035900000541023A0223A210420FEF7E9F9FCF799
:1035A0007BFF024618A107A8FFF764FCCDE9005491
:1035B0001023A0224A210420FEF7DAF90122314625
:1035C00047464046FCF75BFF4846FCF777FE002283
:1035D00031463846FCF753FF0220FCF76FFEBDE78B
:1035E00000080240F805002054696D653A20253036
:1035F00032643A253032640054696D653A202530D2
:1036000032642025303264005469636B3A202564AB
:10361000206D7300F0B50B30154D20F0070100242C
:10362000144A0FE003688B420BD38B4205D95E1A14
:1036300043184768C3E9006700E04368136002C0AD
:1036400004E0021D10680028ECD12046002802D1B9
:10365000286808B10020F0BD064A07481060074AF4
:10366000121A22F00702C0E9002401202860D7E7DF
:10367000AC000020A8000020B4060020B008002004
:1036800030B444680369A44630BC1846604730B47F
:10369000D0E90343A44630BC1846604730B4846880
:1036A0000369A44630BC1846604730B40469056815
:1036B0002046AC4630BC604700000000000000001F
:1036C00000000000000000003F400000000000007B
:1036D00000003000400030004000000009000BC036
:1036E0003D000BC03D00090018C024407FE022408F
:1036F00031800000180024C01B000D803240018082
:1037000003801C4027401C800740004010006000E0
:1037100000000000000000000000000000001F800A
:10372000204040200000402020401F80000000007A
:10373000090006001F8006000900000004000400C4
:103740003F80040004000000001000600000000042
:103750000000000004000400040004000400000055
:10376000000000400000000000000000002001C038
:1037700006003800400000001F802040204020400C
:103780001F800000000010403FC00040000000000B
:1037900018C02140224024401840000010802040E2
:1037A000244024401B80000002000D0011003FC097
:1037B000014000003C80244024402440238000003D
:1037C0001F8024402440344003800000300020004B
:1037D00027C03800200000001B80244024402440E3
:1037E0001B8000001C0022C0224022401F800000DD
:1037F0000000000008400000000000000000000081
:103800000460000000000000000004000A00110035
:10381000208040400900090009000900090000005B
:1038200000004040208011000A0004001800200021
:1038300023402400180000001F802040274029401A
:103840001F400000004007C039000F0001C00040C9
:1038500020403FC0244024401B8000001F802040A7
:10386000204020403080000020403FC020402040C9
:103870001F80000020403FC024402E4030C0000088
:1038800020403FC024402E00300000000F00108078
:10389000204022403380020020403FC0040004004A
:1038A0003FC02040204020403FC02040204000003A
:1038B0000060202020203FC02000200020403FC08A
:1038C00024400B0030C0204020403FC0204000403A
:1038D000004000C03FC03C0003C03C003FC00000AF
:1038E00020403FC00C4023003FC020001F802040EC
:1038F000204020401F80000020403FC02440240082
:10390000180000001F802140214020E01FA000007F
:1039100020403FC02440260019C0004018C0244069
:103920002440224031800000300020403FC0204031
:103930003000000020003F80004000403F80200019
:1039400020003E0001C0070038002000380007C0FA
:103950003C0007C038000000204039C0060039C0D4
:10396000204000002000384007C038402000000000
:10397000304021C02640384020C000000000000038
:103980007FE0402040200000000070000C00038019
:10399000004000000000402040207FE000000000C8
:1039A0000000200040002000000000000010001077
:1039B0000010001000100010000000004000000087
:1039C00000000000000002800540054003C00040E8
:1039D00020003FC00440044003800000000003803A
:1039E00004400440064000000000038004402440DE
:1039F0003FC0004000000380054005400340000038
:103A0000000004401FC0244024402000000002E0C9
:103A1000055005500650042020403FC004400400DB
:103A200003C000400000044027C000400000000028
:103A300000100010041027E00000000020403FC0EC
:103A40000140070004C00440204020403FC0004027
:103A50000040000007C0040007C0040003C00000CD
:103A6000044007C00440040003C00040000003807D
:103A70000440044003800000041007F00450044098
:103A800003800000000003800440045007F0001091
:103A9000044007C00240040004000000000006408B
:103AA0000540054004C00000000004001F800440E1
:103AB00000400000040007800040044007C00040B0
:103AC0000400070004C0018006000400060001C0D5
:103AD000070001C006000000044006C0010006C047
:103AE000044000000410071004E0018006000400F8
:103AF0000000044005C00640044000000000000033
:103B000004007BE040200000000000000000FFF007
:103B100000000000000040207BE0040000000000E6
:103B20004000800040002000200040000000000015
:103B30000000000000000000000000000000000085
:103B400000001FCC000C0000000000000000080076
:103B5000300060000800300060000000022003FC1C
:103B60001E20022003FC1E200220000000000E1870
:103B700011043FFF10840C78000000000F00108437
:103B80000F3800C0077818840078000000780F8490
:103B900010C411240E9800E4008400080800680096
:103BA00070000000000000000000000000000000A5
:103BB000000007E018182004400200000000400246
:103BC0002004181807E00000000000000240024036
:103BD00001800FF001800240024000000080008060
:103BE00000800FF800800080008000000001000DC0
:103BF000000E000000000000000000000000008037
:103C00000080008000800080008000800000000CA8
:103C1000000C000000000000000000000000000692
:103C2000001800600180060018002000000007F066
:103C3000080810041004080807F000000000080439
:103C400008041FFC000400040000000000000E0C2B
:103C500010141024104411840E0C000000000C18E5
:103C600010041104110412880C700000000000E020
:103C70000320042408241FFC0024000000001F98D7
:103C8000108411041104108810700000000007F067
:103C900008881104110418880070000000001C003E
:103CA000100010FC13001C001000000000000E3873
:103CB00011441084108411440E38000000000700E5
:103CC000088C10441044088807F000000000000031
:103CD0000000030C030C00000000000000000000C6
:103CE000000101060000000000000000000000804C
:103CF00001400220041008081004000002200220E5
:103D000002200220022002200220000000001004F5
:103D100008080410022001400080000000000E008E
:103D20001200100C106C10800F00000003E00C1843
:103D300013E4142417C4082807D000000004003C32
:103D400003C41C40074000E4001C000410041FFCD6
:103D50001104110411040E880070000003E00C1817
:103D600010041004100410081C10000010041FFCA4
:103D7000100410041004080807F0000010041FFCD1
:103D80001104110417C410040818000010041FFCCB
:103D90001104110017C010000800000003E00C1807
:103DA0001004100410441C780040000010041FFC94
:103DB00010840080008010841FFC10040000100498
:103DC00010041FFC10041004000000000003000198
:103DD000100110011FFE10001000000010041FFC55
:103DE000110403801464181C1004000010041FFC4C
:103DF0001004000400040004000C000010041FFC68
:103E00001F0000FC1F001FFC1004000010041FFC1A
:103E10000C04030000E010181FFC100007F0080855
:103E2000100410041004080807F0000010041FFC20
:103E300010841080108010800F00000007F0081818
:103E400010241024101C080A07F2000010041FFCA4
:103E50001104110011C011300E0C000400000E1CE2
:103E600011041084108410441C3800001800100045
:103E700010041FFC100410001800000010001FF8B0
:103E800010040004000410041FF8100010001E00AD
:103E900011E0001C007013801C0010001FC0103CBB
:103EA00000E01F0000E0103C1FC000001004180CD0
:103EB000163401C001C01634180C100410001C0088
:103EC000130400FC13041C00100000000804101C64
:103ED0001064108413041C0410180000000000007B
:103EE00000007FFE4002400240020000000030005F
:103EF0000C0003800060001C000300000000400272
:103F0000400240027FFE00000000000000000000B0
:103F1000200040004000400020000000000100019F
:103F2000000100010001000100010001000040004B
:103F30004000200000000000000000000000009889
:103F4000012401440144014400FC000410001FFC52
:103F50000088010401040088007000000000007067
:103F600000880104010401040088000000000070C2
:103F700000880104010411081FFC0004000000F87F
:103F8000014401440144014400C800000000010450
:103F900001040FFC1104110411001800000000D6E8
:103FA00001290129012901C90106000010041FFC93
:103FB000008401000100010400FC00040000010471
:103FC000190419FC000400040000000000000003B4
:103FD00000010101190119FE0000000010041FFC7E
:103FE0000024004001B4010C010400000000100492
:103FF00010041FFC0004000400000000010401FC88
:104000000104010001FC0104010000FC010401FCA9
:10401000008401000100010400FC0004000000F81D
:10402000010401040104010400F80000010101FF82
:104030000085010401040088007000000000007089
:10404000008801040104010501FF000101040104CD
:1040500001FC00840104010001800000000000CC8C
:104060000124012401240124019800000000010022
:10407000010007F80104010400000000010001F83C
:10408000000400040004010801FC00040100018098
:104090000170000C001001600180010001F0010CB2
:1040A000003001C00030010C01F0010000000104EB
:1040B000018C00740170018C010400000101018178
:1040C0000171000E001801600180010000000184F0
:1040D000010C013401440184010C000000000000C7
:1040E0000000000001003EFC400240020000000011
:1040F00000000000FFFF0000000000000000400280
:1041000040023EFC010000000000000000006000D2
:10411000800080004000400020002000424D42A866
:1041200000000000000042000000280000008000A5
:104130000000A8000000010010000300000000A81B
:104140000000120B0000120B000000000000000035
:10415000000000F80000E00700001F000000000061
:10416000000000000000000000000000000000004F
:10417000000000000000000000000000000000003F
:10418000000000000000000000000000000000002F
:10419000000000000000000000000000000000001F
:1069100000000000242196B55DEFFFFFFFFFFBDEC6
:10692000B294000000000000000000000000000021
:106930000000000000000000000000000000000057
:106940000000000000000000000000000000000047
:106950000000000000000000000000000000000037
:106960000000000000000000000000000000000027
:106970000000000000000000000000000000000017
:106980000000000000000000000000000000000007
:1069900000000000000000000000000000000000F7
:1069A00000000000000000000000000000000000E7
:1069B00000000000000000000000000000000000D7
:1069C00000000000000000000000000000000000C7
:1069D00000000000000000000000000000000000B7
:1069E00000000000000000000000000000000000A7
:1069F0000000000000000000000000000000000097
:106A00000000000000000000000000000000000086
:106A10000000AA52BEF7FFFFBEF796B514A5F7BD5A
:106A2000BEF75DEFAA520000000000000000000069
:106A30000000000000000000000000000000000056
:106A40000000000000000000000000000000000046
:106A50000000000000000000000000000000000036
:106A60000000000000000000000000000000000026
:106A70000000000000000000000000000000000016
:106A80000000000000000000000000000000000006
:106A900024212C632C632C63000000000000000004
:106AA00000000000000000000000000000000000E6
:106AB00000000000000000000000000000000000D6
:106AC00000000000000000000000000000000000C6
:106AD000E7392C632C63AA5200000000000000007C
:106AE00000000000000000000000000000000000A6
:106AF0000000000000000000E7392C632C632C63C9
:106B00002C632C63E7390000000000000000000047
:106B10002421BEF7FFFFBEF7AA52000000000000CC
:106B2000E739FBDEBEF7AA520000000000000000BB
:106B3000000000000000000000002C632C632C63A8
:106B40002C63AA52000000000000000000000000BA
:106B50000000000000000000000000000000000035
:106B60000000000000000000000000000000000025
:106B70000000000000000000000000000000000015
:106B80000000000000000000FFFFFFFFFFFFFFFF0D
:106B9000FFFFFFFFFFFFFFFFBAD60000000000006D
:106BA000000000005DEFFFFFFFFFFFFFFFFFFFFFA3
:106BB000FFFFF7BD00000000000000000000000023
:106BC000000000000000CF7BFFFFFFFFFFFFFFFF83
:106BD000FFFFFFFFFFFFFFFF14A500000000000004
:106BE0000000000000000000000059CEFFFFFFFF82
:106BF000FFFFFFFFFFFFFFFFFFFFFFFFFFFFFFFFA5
:106C0000FFFFFFFFFFFFBAD62421000000000000B5
:106C100014A5FFFFFFFF2C63000000000000000030
:106C200000002421FBDEFBDE00000000000000006D
:106C30003084FFFFFFFFFFFFFFFFFFFFFFFFFFFFAE
:106C4000FFFFFFFFBEF7F7BD2C6300000000000050
:106C50000000000000000000000000000000000034
:106C60000000000000000000000000000000000024
:106C70000000000000000000000000000000000014
:106C800000000000000000002C6330845DEFFFFF77
:106C9000FFFFF7BD00000000E73900000000000022
:106CA00000000000AA523084BEF7FFFFFFFFB2943D
:106CB0002C63AA5200000000000000000000000049
:106CC00000000000000024212C6314A5BEF7FFFF84
:106CD000FFFF308400000000E739000000000000E2
:106CE00000000000000000000000E7393084FBDEF7
:106CF000FFFFFFFF5DEF5DEFFFFFFFFF5DEF59CE91
:106D0000B2942C63B294FFFFF7BD000000000000B6
:106D10005DEFFFFF5DEF00000000000000000000DD
:106D200000000000AA5296B500000000000000001C
:106D300000000000AA52FFFFFFFFFBDE2C632C6364
:106D40002C63B294FBDEFFFFFFFF59CE242100002D
:106D50000000000000000000000000000000000033
:106D60000000000000000000000000000000000023
:106D70000000000000000000000000000000000013
:106D8000000000000000000000000000AA52FFFF09
:106D9000FFFF5DEF000000000000000000000000A9
:106DA00000000000000000003084FFFFFFFF96B5E8
:106DB00000000000000000000000000000000000D3
:106DC000000000000000000000000000B294FFFF7F
:106DD000FFFFF7BD00000000000000000000000001
:106DE000000000000000000000000000000024215E
:106DF0005DEFFFFFBEF7242100000000000000004F
:106E0000000000002421FFFFFFFF000000002421FC
:106E1000FFFFFFFFF7BD00000000000000000000C2
:106E20000000000000000000000000000000000062
:106E300000000000000059CEFFFFFFFFE73900000F
:106E40000000000000002C63BEF7FFFFFBDE2421E2
:106E50000000000000000000000000000000000032
:106E60000000000000000000000000000000000022
:106E70000000000000000000000000000000000012
:106E80000000000000000000000000000000FBDE29
:106E9000FFFFFFFF242100000000000000000000B1
:106EA00000000000000000002421FFFFFFFFFBDEC8
:106EB00000000000000000000000000000000000D2
:106EC0000000000000000000000000002421FFFF7F
:106ED000FFFFFBDE000000000000000000000000DB
:106EE00000000000000000000000000000000000A2
:106EF000B294FFFFFFFF308400000000000000009C
:106F0000000000002C63FFFFBEF7000000002C63B0
:106F1000FFFFFFFF14A500000000000000000000BC
:106F2000000000000000000000000000000024211C
:106F300014A5AA5200003084FFFFFFFFB2940000A6
:106F40000000000000000000AA52BEF7FFFFFBDEB9
:106F50000000000000000000000000000000000031
:106F60000000000000000000000000000000000021
:106F70000000000000000000000000000000000011
:106F80000000000000000000000000000000B294BB
:106F9000FFFFFFFF30840000000000000000000041
:106FA0000000000000000000000059CEFFFFFFFFBE
:106FB000242100000000000000000000000000008C
:106FC0000000000000000000000000000000BAD631
:106FD000FFFFFFFF24210000000000000000000070
:106FE00000000000000000000000000000000000A1
:106FF000E739FFFFFFFF59CE00000000000000004E
:107000000000000000003084AA52000000002C6341
:10701000FFFFFFFF14A500000000000000000000BB
:107020000000000000000000000000000000BAD6D0
:10703000FFFFBAD600002421FFFFFFFFFBDE0000A8
:10704000000000000000000000002C63FFFFFFFFB5
:1070500014A5000000000000000000000000000077
:107060000000000000000000000000000000000020
:107070000000000000000000000000000000000010
:107080000000000000000000000000000000AA5204
:10709000FFFFFFFFF7BD0000000000000000000040
:1070A00000000000000000000000B294FFFFFFFF9E
:1070B000308400000000000000000000000000001C
:1070C0000000000000000000000000000000B2947A
:1070D000FFFFFFFF30840000000000000000000000
:1070E00000000000000000000000000000000000A0
:1070F00000005DEFFFFFFFFF000000000000000048
:107100000000000000000000000000000000AA5283
:10711000FFFFFFFF14A500000000000000000000BA
:10712000000000000000000000000000CF7BFFFF17
:10713000BEF7308400000000BAD6FFFFFFFF242115
:10714000000000000000000000000000F7BDFFFF8D
:10715000BEF7242100000000000000000000000035
:10716000000000000000000000000000000000001F
:10717000000000000000000000000000000000000F
:1071800000000000000000000000000000000000FF
:10719000BEF7FFFF5DEF00000000000000000000F0
:1071A0000000FBDEFFFFAA520000AA52FFFFFFFF14
:1071B000F7BD000000000000AA52242100000000DA
:1071C0000000000000000000000000000000AA52C3
:1071D000FFFFFFFFF7BD00000000000000000000FF
:1071E000000000000000000000000000000000009F
:1071F0000000F7BDFFFFFFFFCF7B00000000000095
:10720000000000000000000000000000000000007E
:10721000FFFFFFFFBAD600000000000000000000E2
:1072200000000000000000000000000014A5FFFFA7
:107230002C6300000000000014A5FFFFFFFFCF7BC0
:10724000000000000000000000000000CF7BFFFFF6
:10725000FFFF30840000000000000000000000007C
:10726000000000000000000000000000000000001E
:10727000000000000000000000000000000000000E
:1072800000003084BAD6CF7B000000000000000070
:10729000F7BDFFFFFFFFE73900000000000000001E
:1072A000AA52FFFFFFFFAA52000000005DEFFFFFA0
:1072B000FBDE000000000000BAD614A500000000AC
:1072C000000096B559CEE73900000000000000002C
:1072D000BEF7FFFF5DEF00000000000000000000AF
:1072E000000000000000000000000000000000009E
:1072F00000003084FFFFFFFF96B500000000000093
:10730000000000000000000000000000000000007D
:10731000BAD6FFFFBEF7000000000000000000002A
:1073200000000000000000000000000059CEFBDE5D
:1073300000000000000000002C63FFFFFFFF14A509
:107340000000000000000000000000000000FFFF3F
:10735000FFFFF7BD0000000000000000000000007B
:10736000000000000000000000000000000000001D
:10737000000000000000000000000000000000000D
:1073800000005DEFFFFF14A50000000000000000FA
:107390003084FFFFFFFF3084000000000000000089
:1073A0002C63FFFFF7BD000000000000F7BDFFFFEA
:1073B000FFFFBAD6BAD6BAD6FFFFF7BD000000006D
:1073C000E739FFFFFFFF2C63000000000000000012
:1073D000F7BDFFFFFFFFE7390000000000000000DD
:1073E000000000000000000000000000000000009D
:1073F0000000E739FFFFFFFFFBDE00000000000098
:10740000000000000000000000000000000000007C
:10741000B294FFFFFFFFAA5200000000000000002E
:1074200000000000000000000000000014A5FBDECA
:1074300000000000000000000000FFFFFFFFBAD6C0
:107440000000000000000000000000000000FFFF3E
:10745000FFFFBAD60000000000000000000000009E
:10746000000000000000000000000000000000001C
:10747000000000000000000000000000000000000C
:107480000000FFFFFFFFAA52000000000000000004
:10749000E739FFFFFFFFF7BD00000000000000001C
:1074A0002C63FFFF30840000000000003084FFFFE9
:1074B000FFFF59CE14A514A559CE5DEF00000000C2
:1074C0002C63FFFFFBDE0000000000000000000056
:1074D0003084FFFFFFFF3084000000000000000048
:1074E000000000000000000000000000000000009C
:1074F00000000000FBDEFFFFFFFFE7390000000097
:10750000000000000000000000000000000000007B
:107510002421FFFFFFFFF7BD000000000000000076
:107520000000000000000000000000003084FFFFA9
:10753000E7390000000000000000BAD6FFFFFFFF9F
:107540000000000000000000000000000000FFFF3D
:10755000FFFFBAD60000000000000000000000009D
:10756000000000000000000000000000000000001B
:10757000000000000000000000000000000000000B
:107580000000FFFFF7BD0000000000000000000049
:1075900000005DEFFFFF5DEF000000000000000055
:1075A000AA52FFFFB294000000000000E739FFFF7D
:1075B000FFFF96B500000000AA52FFFF0000000088
:1075C0002C63FFFF3084000000000000000000007A
:1075D000E739FFFFFFFFF7BD0000000000000000DB
:1075E000000000000000000000000000000000009B
:1075F00000000000B294FFFFFFFFB2940000000003
:10760000000000000000000000000000000000007A
:107610000000F7BDFFFFBEF72421000000000000BE
:107620000000000000000000AA5296B52421BEF719
:1076300014A5000000000000000014A5FFFFFFFFDC
:107640002C63000000000000000000000000FFFFAD
:10765000FFFFBAD60000000000000000000000009C
:10766000000000000000000000000000000000001A
:10767000000000000000000000000000000000000A
:107680000000BEF759CE000000000000000000001E
:107690000000F7BDFFFFFFFFE7390000000000001A
:1076A00000005DEFBAD600000000000000005DEFB2
:1076B000FFFFFBDE000000000000000000000000F3
:1076C000AA52FFFFB294000000000000000000007A
:1076D00000005DEFFFFF5DEF000000000000000014
:1076E000000000000000000000000000000000009A
:1076F00000000000E739FFFFFFFFFBDE0000000095
:107700000000000000000000000000000000000079
:1077100000002421BEF7FFFF96B500000000000026
:1077200000000000000000002C63BAD6000014A581
:10773000BEF7AA520000000000002C63FFFFFFFF0D
:10774000B29400000000000000000000CF7BFFFFAB
:10775000FFFF96B5000000000000000000000000E0
:107760000000000000000000000000000000000019
:107770000000000000000000000000000000000009
:107780000000F7BDFFFFE739000000000000000027
:1077900000003084FFFFFFFFB294000000000000F3
:1077A0000000CF7BFFFF3084000000000000F7BD29
:1077B000FFFFFFFFE7390000000000000000E7398D
:1077C000E7395DEFFBDE0000000000000000000074
:1077D0000000F7BDFFFFFFFFE739000000000000D9
:1077E0000000000000000000000000000000000099
:1077F000000000000000F7BDFFFFFFFFE7390000B9
:107800000000000000000000000000000000000078
:1078100000000000CF7BFFFFFFFF2C630000000093
:1078200000000000000000002C63FFFF00000000CB
:10783000FBDEFBDE2421000000000000FFFFFFFF55
:1078400059CE00000000000000000000BAD6FFFF83
:10785000FFFFE7390000000000000000000000000A
:107860000000000000000000000000000000000018
:107870000000000000000000000000000000000008
:107880000000E739BEF7FBDE242100000000000005
:107890000000E739FFFFFFFF59CE000000000000A5
:1078A0000000000096B5BEF7308400000000308470
:1078B000FFFFFFFF3084000000000000000014A55F
:1078C000BAD6CF7BFFFFF7BD00000000000000002C
:1078D00000003084FFFFFFFFB294000000000000B2
:1078E0000000000000000000000000000000000098
:1078F000000000000000E739BEF7FFFF59CE00008E
:1079000000000000E739E739000000000000000037
:1079100000000000000014A5FFFFBEF7AA520000FF
:107920000000000000000000CF7BFFFFE7390000EF
:107930002421FBDE5DEFAA5200003084FFFFFFFF31
:10794000BEF70000000000000000B294FFFFFFFF40
:1079500096B50000000000000000000000000000DC
:107960000000000000000000000000000000000017
:107970000000000000000000000000000000000007
:1079800000000000CF7BFFFFBEF796B52C63E73900
:10799000000000005DEFFFFFBEF7000000000000E8
:1079A00000000000000096B5FFFFBAD6CF7BAA52B8
:1079B000FFFFFFFF59CE000000000000000096B559
:1079C000BEF7000096B5FFFF5DEFB2942C63242153
:1079D0000000E739FFFFFFFF59CE00000000000064
:1079E0000000000000000000000000000000000097
:1079F0000000000000000000CF7BFFFFFFFF30848D
:107A000000003084BEF7BEF7000000000000000058
:107A100000000000000000003084FFFFBEF7B294B9
:107A20000000000000000000BAD6FFFFCF7B00007E
:107A30000000242159CEFFFFF7BDB29414A5F7BD75
:107A4000FBDE2C6300002421F7BDFFFFFFFFF7BD25
:107A50000000000000000000000000000000000026
:107A60000000000000000000000000000000000016
:107A70000000000000000000000000000000000006
:107A8000000000000000AA52FBDEFFFFFFFFFFFF27
:107A9000FFFFFFFFFFFFFFFFFFFFFFFFFFFFFFFFF6
:107AA000FFFF59CE2C6300002C63F7BDBEF7FFFF2C
:107AB000FFFFFFFFFFFFFFFFFFFFFFFFFFFFFFFFD6
:107AC000FFFFAA520000CF7BBEF7FFFFFFFFFFFFC3
:107AD000FFFFFFFFFFFFFFFFFFFFFFFFFFFFFFFFB6
:107AE000BEF7F7BDE739000000000000000000000D
:107AF000000000000000000000002C635DEFFFFFAD
:107B00005DEFFFFFFFFFBAD600000000000000009D
:107B100000000000000000000000AA52BAD6FFFFDB
:107B20005DEFF7BD96B55DEFFFFFBAD62C630000A1
:107B30000000000000002C63BAD6FFFF5DEFF7BD28
:107B400014A514A5BAD6FFFFFFFFBEF7B29400003C
:107B50000000000000000000000000000000000025
:107B60000000000000000000000000000000000015
:107B70000000000000000000000000000000000005
:107B800000000000000000000000CF7BF7BDBAD667
:107B9000BEF7FFFFBEF7BAD6BAD659CE14A514A5C4
:107BA00014A5FBDEFFFF2C63000000000000242171
:107BB0002C632C632C632C632C632C632C632C634D
:107BC00096B5AA52000000002421308459CEBAD6BE
:107BD000FFFFFFFF5DEFBAD6BAD6F7BD14A514A517
:107BE00014A5BEF7BEF7242100000000000000002D
:107BF000000000000000000000000000242130848C
:107C0000F7BD59CEB294242100000000000000000E
:107C10000000000000000000000000000000AA5268
:107C200014A5BAD659CE14A5E7390000000000000B
:107C300000000000000000000000E739308414A5B7
:107C400059CEBAD6F7BD14A5CF7B000000000000C6
:107C50000000000000000000000000000000000024
:107C60000000000000000000000000000000000014
:107C70000000000000000000000000000000000004
:107C800000000000000000000000000000000000F4
:107C900000000000000000000000000000000000E4
:107CA0000000CF7BFFFF14A50000000000000000D3
:107CB00000000000000000000000000000000000C4
:107CC00000000000000000000000000000000000B4
:107CD00000000000000000000000000000000000A4
:107CE000000096B5FFFF2C630000000000000000BC
:107CF0000000000000000000000000000000000084
:107D00000000000000000000000000000000000073
:107D10000000000000000000000000000000000063
:107D20000000000000000000000000000000000053
:107D30000000000000000000000000000000000043
:107D40000000000000000000000000000000000033
:107D50000000000000000000000000000000000023
:107D60000000000000000000000000000000000013
:107D70000000000000000000000000000000000003
:107D800000000000000000000000000000000000F3
:107D900000000000000000000000000000000000E3
:107DA0000000AA52BEF7CF7B0000000000000000D8
:107DB00000000000000000000000000000000000C3
:107DC00000000000000000000000000000000000B3
:107DD00000000000000000000000000000000000A3
:107DE00000003084BEF7E73900000000000000000A
:107DF0000000000000000000000000000000000083
:107E00000000000000000000000000000000000072
:107E10000000000000000000000000000000000062
:107E20000000000000000000000000000000000052
:108C9000E7392C632C632C632421000000000000C2
:108CA00000000000000000000000000000000000C4
:108CB00000000000000000000000000000000000B4
:108CC00000000000000000000000000000000000A4
:108CD0000000000000000000000000000000000094
:108CE0000000000000000000000000000000000084
:108CF0000000000000000000000000000000000074
:108D00000000000000000000000000000000000063
:108D10000000000000000000000000000000000053
:108D20000000000000000000000000000000000043
:108D30000000000000000000000000000000000033
:108D40000000000000000000000000000000000023
:108D50000000000000000000000000000000000013
:108D60000000000000000000000000000000000003
:108D700000000000000000000000000000000000F3
:108D800000000000000000000000E739F7BDBEF75A
:108D9000BEF7BAD6BAD6BEF7FFFF5DEFF7BDAA524F
:108DA00000000000000000000000000000000000C3
:108DB0003084FBDEFFFFFFFFBEF7F7BD2C63000032
:108DC0000000000000000000E739F7BD5DEFFFFF85
:108DD000FFFFBEF759CE308424210000AA52BAD634
:108DE000BAD6BAD6BAD6BAD6BAD6BAD60000000023
:108DF0000000000000000000242114A5FBDEFFFF9E
:108E0000FFFF5DEF14A52421000096B5BAD6BAD6AF
:108E1000BAD6BAD6BAD6BAD63084000000003084AA
:108E2000BAD6BAD6BAD6BAD6BAD6BAD696B5000097
:108E3000000000000000000000000000CF7B59CEC1
:108E40005DEFFFFFFFFFFBDEF7BDAA520000000051
:108E50000000000000000000000000000000000012
:108E60000000000000000000000000000000000002
:108E700000000000000000000000000000000000F2
:108E8000000000000000242196B5FFFFF7BDAA52A4
:108E90000000000000002421FFFFFFFFFFFFFFFF95
:108EA00059CE242100000000000000000000F7BDA2
:108EB000FFFFFFFFFFFFFFFFFFFFFFFFFFFF96B575
:108EC000000000000000CF7BFFFFFFFFFFFFFFFF60
:108ED000FFFFFFFFFFFFFFFFBEF714A52C63FFFF9F
:108EE000FFFFFFFFFFFFFFFFFFFFFFFF000000008E
:108EF0000000000000003084BEF7FFFFFFFFFFFF0F
:108F0000FBDE14A5FBDE5DEFAA52BAD6FFFFFFFF22
:108F1000FFFFFFFFFFFFFFFF14A50000000014A5E7
:108F2000FFFFFFFFFFFFFFFFFFFFFFFFBAD60000BD
:108F30000000000000000000E739BAD6FFFFFFFF85
:108F4000FFFF14A50000E739B2945DEF59CE24214C
:108F50000000000000000000000000000000000011
:108F60000000000000000000000000000000000001
:108F700000000000000000000000000000000000F1
:108F8000000000002421FBDEFBDEAA5200000000EE
:108F90000000000000002C63FFFFFFFFFFFFFFFF4A
:108FA000FFFFFBDE00000000000000003084FFFF38
:108FB000FFFFFFFFFFFFFFFFFFFFB294E739FBDE7C
:108FC000B29400002421BEF7FFFFFFFFFFFFFFFF69
:108FD000FFFFBEF72421000030845DEFBEF7FFFFE6
:108FE000FFFFFFFFFFFFFFFFFFFFFFFF000000008D
:108FF000000000003084FFFFFFFFFFFFFFFFFFFFC7
:109000002C6300000000B294BEF75DEFFFFFFFFF8E
:10901000FFFFFFFFFFFFFFFF14A50000000014A5E6
:10902000FFFFFFFFFFFFFFFFFFFFFFFFBAD60000BC
:10903000000000000000AA52BEF7FFFFFFFFFFFF85
:10904000FFFF14A5000000000000000014A5FBDED7
:1090500024210000000000000000000000000000CB
:109060000000000000000000000000000000000000
:1090700000000000000000000000000000000000F0
:1090800000000000E73959CE242100000000000054
:1090900000000000E739BEF7FFFFFFFFFFFFFFFF03
:1090A000FFFFFFFF14A5000000000000BAD6FFFF7D
:1090B000FFFFFFFFFFFFFFFFFFFF2C630000E7390B
:1090C0005DEF2421CF7BFFFFFFFFFFFFFFFFFFFFCF
:1090D000FFFFBAD6000000000000000096B5FFFFB9
:1090E000FFFFFFFFFFFFFFFFFFFFFFFF000000008C
:1090F00000002C63FFFFFFFFFFFFFFFFFFFFFFFFED
:109100002C630000000000003084FFFFFFFFFFFF22
:10911000FFFFFFFFFFFFFFFF14A50000000014A5E5
:10912000FFFFFFFFFFFFFFFFFFFFFFFFBAD60000BB
:10913000000000002421BEF7FFFFFFFFFFFFFFFF3D
:10914000FFFF14A500000000000000000000B29422
:10915000BAD600000000000000000000000000007F
:1091600000000000000000000000000000000000FF
:1091700000000000000000000000000000000000EF
:1091800000000000000000000000000000000000DF
:1091900000002421FBDEFFFFFFFFFFFFFFFFFFFFBB
:1091A000FFFFFFFF5DEF000000000000FFFFFFFF7B
:1091B000FFFFFFFFFFFFFFFFFFFF2C63000000002A
:1091C000F7BD2C6314A5FFFFFFFFFFFFFFFFFFFFAD
:1091D000FFFFBAD600000000000000002C63FFFF74
:1091E000FFFFFFFFFFFFFFFFFFFFFFFF000000008B
:1091F00000005DEFFFFFFFFFFFFFFFFFFFFFFFFF2F
:109200002C630000000000000000BAD6FFFFFFFF43
:10921000FFFFFFFFFFFFFFFF14A50000000014A5E4
:10922000FFFFFFFFFFFFFFFFFFFFFFFFBAD60000BA
:1092300000000000F7BDFFFFFFFFFFFFFFFFFFFF84
:10924000FFFF14A500000000000000000000000067
:10925000BAD63084000000000000000000000000CA
:1092600000000000000000000000000000000000FE
:1092700000000000000000000000000000000000EE
:1092800000000000000000000000000000000000DE
:109290002421FBDEFFFFFFFFFFFFFFFFFFFFFFFFBC
:1092A000FFFFFFFFFFFF000000000000FFFFFFFFC8
:1092B000FFFFFFFFFFFFFFFFFFFF2C630000000029
:1092C0000000000014A5FFFFFFFFFFFFFFFFFFFFEF
:1092D000FFFFBAD600000000000000002C63FFFF73
:1092E000FFFFFFFFFFFFFFFFFFFFFFFF000000008A
:1092F000CF7BFFFFFFFFFFFFFFFFFFFFFFFFFFFF32
:109300002C630000000000000000BAD6FFFFFFFF42
:10931000FFFFFFFFFFFFFFFF14A50000000014A5E3
:10932000FFFFFFFFFFFFFFFFFFFFFFFFBAD60000B9
:1093300000002421FFFFFFFFFFFFFFFFFFFFFFFFF4
:10934000FFFF14A500000000000000000000000066
:109350002C63BAD6000000000000000000000000EE
:1093600000000000000000000000000000000000FD
:1093700000000000000000000000000000000000ED
:109380000000000000000000000000000000242198
:10939000FBDEFFFFFFFFFFFFFFFFFFFFFFFFFFFF02
:1093A000FFFFFFFFBEF7000000000000FFFFFFFF10
:1093B000FFFFFFFFFFFFFFFFFFFF2C630000000028
:1093C0000000000014A5FFFFFFFFFFFFFFFFFFFFEE
:1093D000FFFFBAD600000000000000002C63FFFF72
:1093E000FFFFFFFFFFFFFFFFFFFFFFFF0000000089
:1093F00096B5FFFFFFFFFFFFFFFFFFFFFFFFFFFF30
:109400002C630000000000000000BAD6FFFFFFFF41
:10941000FFFFFFFFFFFFFFFF14A50000000014A5E2
:10942000FFFFFFFFFFFFFFFFFFFFFFFFBAD60000B8
:109430000000CF7BFFFFFFFFFFFFFFFFFFFFFFFFEE
:10944000FFFF14A500000000000000000000000065
:109450000000BEF724210000000000000000000012
:1094600000000000000000000000000000000000FC
:1094700000000000000000000000000000000000EC
:109480000000000000000000000000002421FBDEBE
:10949000FFFFFFFFFFFFFFFFFFFFFFFFFFFFFFFFDC
:1094A000FFFFFFFFF7BD000000000000FFFFFFFF10
:1094B000FFFFFFFFFFFFFFFFFFFF2C630000000027
:1094C0000000000014A5FFFFFFFFFFFFFFFFFFFFED
:1094D000FFFFBAD600000000000000002C63FFFF71
:1094E000FFFFFFFFFFFFFFFFFFFFFFFF0000000088
:1094F000BAD6FFFFFFFFFFFFFFFFFFFFFFFFFFFFEA
:109500002C630000000000000000BAD6FFFFFFFF40
:10951000FFFFFFFFFFFFFFFF14A50000000014A5E1
:10952000FFFFFFFFFFFFFFFFFFFFFFFFBAD60000B7
:10953000000014A5FFFFFFFFFFFFFFFFFFFFFFFF7E
:10954000FFFF14A500000000000000000000000064
:109550000000BAD62C6300000000000000000000EC
:1095600000000000000000000000000000000000FB
:1095700000000000000000000000000000000000EB
:10958000000000000000000000000000F7BDFFFF29
:10959000FFFFFFFFFFFFFFFFFFFFFFFFFFFFFFFFDB
:1095A000FFFFFFFFE739000000000000FFFFFFFFA3
:1095B000FFFFFFFFFFFFFFFFFFFF2C630000000026
:1095C0000000000014A5FFFFFFFFFFFFFFFFFFFFEC
:1095D000FFFFBAD600000000000000002C63FFFF70
:1095E000FFFFFFFFFFFFFFFFFFFFFFFF0000000087
:1095F000BAD6FFFFFFFFFFFFFFFFFFFFFFFFFFFFE9
:109600002C630000000000000000BAD6FFFFFFFF3F
:10961000FFFFFFFFFFFFFFFF14A50000000014A5E0
:10962000FFFFFFFFFFFFFFFFFFFFFFFFBAD60000B6
:10963000000014A5FFFFFFFFFFFFFFFFFFFFFFFF7D
:10964000FFFF14A500000000000000000000000063
:109650000000BAD62C6300000000000000000000EB
:1096600000000000000000000000000000000000FA
:1096700000000000000000000000000000000000EA
:109680000000000000000000000096B5FFFFFFFF93
:10969000FFFFFFFFFFFFFFFFFFFFFFFFFFFFFFFFDA
:1096A000FFFF14A50000000000000000FFFFFFFF07
:1096B000FFFFFFFFFFFFFFFFFFFF2C630000000025
:1096C0000000000014A5FFFFFFFFFFFFFFFFFFFFEB
:1096D000FFFFBAD600000000000000002C63FFFF6F
:1096E000FFFFFFFFFFFFFFFFFFFFFFFF0000000086
:1096F000BAD6FFFFFFFFFFFFFFFFFFFFFFFFFFFFE8
:109700002C630000000000000000BAD6FFFFFFFF3E
:10971000FFFFFFFFFFFFFFFF14A50000000014A5DF
:10972000FFFFFFFFFFFFFFFFFFFFFFFFBAD60000B5
:109730000000B294FFFFFFFFFFFFFFFFFFFFFFFFEF
:10974000FFFF14A500000000000000000000000062
:1097500000005DEFE739000000000000000000009D
:1097600000000000000000000000000000000000F9
:1097700000000000000000000000000000000000E9
:109780000000000000000000CF7BFFFFFFFFFFFF95
:10979000FFFFFFFFFFFFFFFFFFFFFFFFFFFFFFFFD9
:1097A00059CE00000000000000000000FFFFFFFF96
:1097B000FFFFFFFFFFFFFFFFFFFF2C630000000024
:1097C0000000000014A5FFFFFFFFFFFFFFFFFFFFEA
:1097D000FFFFBAD600000000000000002C63FFFF6E
:1097E000FFFFFFFFFFFFFFFFFFFFFFFF0000000085
:1097F00014A5FFFFFFFFFFFFFFFFFFFFFFFFFFFFBE
:109800002C630000000000000000BAD6FFFFFFFF3D
:10981000FFFFFFFFFFFFFFFF14A50000000014A5DE
:10982000FFFFFFFFFFFFFFFFFFFFFFFFBAD60000B4
:109830000000AA52FFFFFFFFFFFFFFFFFFFFFFFF38
:10984000FFFF14A500000000000000000000000061
:10985000E739BEF700000000000000000000000033
:1098600000000000000000000000000000000000F8
:1098700000000000000000000000000000000000E8
:109880000000000000002421BEF7FFFFFFFFFFFFE4
:10989000FFFFFFFFFFFFFFFFFFFFFFFFFFFFFBDEFD
:1098A000242100000000000000000000FFFFFFFF77
:1098B000FFFFFFFFFFFFFFFFFFFF2C630000000023
:1098C0000000000014A5FFFFFFFFFFFFFFFFFFFFE9
:1098D000FFFFBAD600000000000000002C63FFFF6D
:1098E000FFFFFFFFFFFFFFFFFFFFFFFF0000000084
:1098F000AA52FFFFFFFFFFFFFFFFFFFFFFFFFFFF7A
:109900002C630000000000000000BAD6FFFFFFFF3C
:10991000FFFFFFFFFFFFFFFF14A50000000014A5DD
:10992000FFFFFFFFFFFFFFFFFFFFFFFFBAD60000B3
:10993000000000005DEFFFFFFFFFFFFFFFFFFFFFE5
:10994000FFFF14A500000000000000000000000060
:1099500014A596B500000000000000000000000003
:1099600000000000000000000000000000000000F7
:1099700000000000000000000000000000000000E7
:1099800000000000000014A5FFFFFFFFFFFFFFFF26
:10999000FFFFFFFFFFFFFFFFFFFFFFFF5DEF242142
:1099A000000000000000000000000000FFFFFFFFBB
:1099B000FFFFFFFFFFFFFFFFFFFF2C630000000022
:1099C0000000000014A5FFFFFFFFFFFFFFFFFFFFE8
:1099D000FFFFBAD600000000000000002C63FFFF6C
:1099E000FFFFFFFFFFFFFFFFFFFFFFFF0000000083
:1099F000000059CEFFFFFFFFFFFFFFFFFFFFFFFF4C
:109A00002C630000000000000000BAD6FFFFFFFF3B
:109A1000FFFFFFFFFFFFFFFF14A50000000014A5DC
:109A2000FFFFFFFFFFFFFFFFFFFFFFFFBAD60000B2
:109A300000000000CF7BFFFFFFFFFFFFFFFFFFFFE6
:109A4000FFFF14A500000000000000000000AA5263
:109A50005DEF242100000000000000000000000075
:109A600000000000000000000000000000000000F6
:109A700000000000000000000000000000000000E6
:109A80000000000000005DEFFFFFFFFFFFFFFFFF92
:109A9000FFFFFFFFFFFFFFFFFFFFBEF7AA5200001F
:109AA000000000000000000000000000FFFFFFFFBA
:109AB000FFFFFFFFFFFFFFFFFFFF2C630000000021
:109AC0000000000014A5FFFFFFFFFFFFFFFFFFFFE7
:109AD000FFFFBAD600000000000000002C63FFFF6B
:109AE000FFFFFFFFFFFFFFFFFFFFFFFF0000000082
:109AF000000024215DEFFFFFFFFFFFFFFFFFFFFFDF
:109B00002C6300000000000024215DEFFFFFFFFF39
:109B1000FFFFFFFFFFFFFFFF14A50000000014A5DB
:109B2000FFFFFFFFFFFFFFFFFFFFFFFFBAD60000B1
:109B3000000000000000F7BDFFFFFFFFFFFFFFFF79
:109B4000FFFF14A50000000000000000AA52BEF7AD
:109B50003084000000000000000000000000000051
:109B600000000000000000000000000000000000F5
:109B700000000000000000000000000000000000E5
:109B8000000000000000FFFFFFFFFFFFFFFFFFFFDF
:109B9000FFFFFFFFFFFFFFFFBEF7AA52000000001C
:109BA000000000000000000000000000FFFFFFFFB9
:109BB000FFFFFFFFFFFFFFFFFFFF2C630000000020
:109BC0000000000014A5FFFFFFFFFFFFFFFFFFFFE6
:109BD000FFFFBAD600000000000000002C63FFFF6A
:109BE000FFFFFFFFFFFFFFFFFFFFFFFF0000000081
:109BF00000000000AA52FBDEFFFFFFFFFFFFFFFF98
:109C00002C63000000002C63FBDE5DEFFFFFFFFF15
:109C1000FFFFFFFFFFFFFFFF14A50000000014A5DA
:109C2000FFFFFFFFFFFFFFFFFFFFFFFFBAD60000B0
:109C3000000000000000000096B5FFFFFFFFFFFFDF
:109C4000FFFF14A5000000000000B2945DEF308417
:109C50000000000000000000000000000000000004
:109C600000000000000000000000000000000000F4
:109C700000000000000000000000000000000000E4
:109C8000000000000000FFFFFFFFFFFFFFFFFFFFDE
:109C9000FFFFFFFFFFFFFFFFAA52000000000000D0
:109CA000000000000000E739BAD6BAD6FFFFFFFF78
:109CB000FFFFFFFFFFFFFFFFFFFFFBDEBAD6BAD6B5
:109CC0003084000014A5FFFFFFFFFFFFFFFFFFFF31
:109CD000FFFFBAD600000000000000002C63FFFF69
:109CE000FFFFFFFFFFFFFFFFFFFFFFFF0000000080
:109CF000000000000000242114A5BEF7FFFFFFFFB5
:109D0000FBDE14A5FBDEBAD6E739BAD6FFFFFFFFAC
:109D1000FFFFFFFFFFFFFFFF14A50000000014A5D9
:109D2000FFFFFFFFFFFFFFFFFFFFFFFFBAD60000AF
:109D3000000000000000000000002C63BAD6FFFF06
:109D4000FFFFBAD614A5F7BDBEF7F7BDE73900008F
:109D50000000000000000000000000000000000003
:109D600000000000000000000000000000000000F3
:109D700000000000000000000000000000000000E3
:109D800000000000000059CEFFFFFFFFFFFFFFFFB4
:109D9000FFFFFFFFFFFF3084000000000000000015
:109DA00000000000000024212C632C63FFFFFFFF54
:109DB000FFFFFFFFFFFFFFFFFFFF2C632C632C6300
:109DC000E7390000E7392C632C632C632C632C6388
:109DD0002C63AA52000000000000000024212C6324
:109DE0002C632C632C632C632C632C630000000019
:109DF0000000000000000000000000002C6314A51B
:109E000014A53084E73900000000BAD6FFFFFFFF39
:109E1000FFFFFFFFFFFFFFFF14A500000000E73971
:109E20002C632C632C632C632C632C63AA520000DC
:109E30000000000000000000000000000000E73902
:109E4000308414A514A5CF7B24210000000000005D
:109E50000000000000000000000000000000000002
:109E600000000000000000000000000000000000F2
:109E700000000000000000000000000000000000E2
:109E8000000000000000AA52FFFFFFFFFFFFFFFFDE
:109E9000FFFFFFFF14A5000000000000000000000D
:109EA000AA52AA520000000000000000FFFFFFFFBE
:109EB000FFFFFFFFFFFFFFFFFFFF24210000000067
:109EC0000000000000000000000000000000000092
:109ED0000000000000000000000000000000000082
:109EE0000000000000000000000000000000000072
:109EF0000000000000000000000000000000000062
:109F000000000000000000000000BAD6FFFFFFFFC5
:109F1000FFFFFFFFFFFFFFFF14A500000000000090
:109F20002421308414A514A53084E73900000000F2
:109F30000000000000000000000000000000000021
:109F40000000000000000000000000000000000011
:109F50000000000000000000000000000000000001
:109F600000000000000000000000000000000000F1
:109F700000000000000000000000000000000000E1
:109F800000000000000000003084FFFFFFFFFFFF23
:109F9000FFFFFFFF24210000000000000000B2943A
:109FA000FFFF2C630000000000000000E73914A54B
:109FB0005DEFFFFFFFFFFFFFFFFF2C6300000000CE
:109FC0000000000000000000000000000000000091
:109FD0000000000000000000000000000000000081
:109FE0000000000000000000000000000000000071
:109FF0000000000000000000000000000000000061
:10A0000000000000000000000000BAD6FFFFFFFFC4
:10A01000FFFFFFFFFFFFFFFF14A500000000E7396F
:10A02000BEF7FFFFFFFFFFFFFFFFBEF7CF7B000084
:10A030000000000000000000000000000000000020
:10A040000000000000000000000000000000000010
:10A050000000000000000000000000000000000000
:10A0600000000000000000000000000000000000F0
:10A0700000000000000000000000000000000000E0
:10A0800000000000000000000000AA52BAD6FFFF46
:10A09000FFFFFFFF14A52C632C6396B55DEFBAD6C6
:10A0A000AA520000000000000000000000000000B4
:10A0B000000030845DEFFFFFFFFF2C630000000015
:10A0C0000000000000000000000000000000000090
:10A0D0000000000000000000000000000000000080
:10A0E0000000000000000000000000000000000070
:10A0F0000000000000000000000000000000000060
:10A1000000000000000000000000BAD6FFFFFFFFC3
:10A11000FFFFFFFFFFFFFFFF14A50000000014A5D5
:10A12000FFFFFFFFFFFFFFFFFFFFFFFFBAD60000AB
:10A13000000000000000000000000000000000001F
:10A14000000000000000000000000000000000000F
:10A1500000000000000000000000000000000000FF
:10A1600000000000000000000000000000000000EF
:10A1700000000000000000000000000000000000DF
:10A180000000000000000000000000000000E739AF
:10A19000B294F7BDBAD6BAD659CE14A5AA520000C9
:10A1A00000000000000000000000000000000000AF
:10A1B00000000000000030845DEF2C630000000010
:10A1C000000000000000000000000000000000008F
:10A1D000000000000000000000000000000000007F
:10A1E000000000000000000000000000000000006F
:10A1F000000000000000000000000000000000005F
:10A2000000000000000000000000AA522C632C6334
:10A210002C632C632C632C63E739000000002C6353
:10A22000FFFFFFFFFFFFFFFFFFFFFFFF14A5000081
:10A23000000000000000000000000000000000001E
:10A24000000000000000000000000000000000000E
:10A2500000000000000000000000000000000000FE
:10A2600000000000000000000000000000000000EE
:10A2700000000000000000000000000000000000DE
:10A2800000000000000000000000000000000000CE
:10A2900000000000000000000000000000000000BE
:10A2A00000000000000000000000000000000000AE
:10A2B0000000000000000000242124210000000014
:10A2C000000000000000000000000000000000008E
:10A2D000000000000000000000000000000000007E
:10A2E000000000000000000000000000000000006E
:10A2F000000000000000000000000000000000005E
:10A30000000000000000000000000000000000004D
:10A31000000000000000000000000000000000003D
:10A320002C63F7BDBAD6BAD659CE308400000000EF
:10A33000000000000000000000000000000000001D
:10A34000000000000000000000000000000000000D
:10A3500000000000000000000000000000000000FD
:10A3600000000000000000000000000000000000ED
:10AD7000000000000000000000000000242100008E
:10AD800000000000000000000000000000000000C3
:10AD9000000000000000242100000000000000006E
:10ADA00000000000000000000000000000000000A3
:10ADB0000000000000000000000000000000000093
:10ADC0000000000000000000000000000000000083
:10ADD0000000000000000000000000000000000073
:10ADE0000000000000000000000000000000000063
:10ADF0000000000000000000000000000000000053
:10AE00000000000000000000000000000000000042
:10AE10000000000000000000000000000000000032
:10AE20000000000000000000000000000000000022
:10AE30000000000000000000000000000000000012
:10AE40000000000000000000000000000000000002
:10AE500000000000000000000000000000000000F2
:10AE600000000000000000000000000000000000E2
:10AE7000000000000000000000000000F7BD00001E
:10AE800000000000000000000000000000000000C2
:10AE900000000000242159CE000000000000000046
:10AEA00000000000000000000000000000000000A2
:10AEB0000000000000000000000000000000000092
:10AEC000000000000000000000000000AA52000086
:10AED0000000000000000000000000000000000072
:10AEE0000000000000000000000000000000000062
:10AEF0000000000000000000000000000000000052
:10AF00000000000000000000000000000000000041
:10AF10000000000000000000000000000000000031
:10AF20000000000000000000000000000000000021
:10AF30000000000000000000000000000000000011
:10AF40000000000000000000000000000000000001
:10AF500000000000000000000000000000000000F1
:10AF600000000000000000000000000000000000E1
:10AF700000000000000000000000CF7BFFFF2C63FA
:10AF800000000000000000000000000000000000C1
:10AF90000000000014A5FFFFE739000000000000DA
:10AFA00000000000000000000000000000000000A1
:10AFB0000000E73996B5FBDEFFFFFFFFBEF759CE75
:10AFC0003084242100000000000000005DEFCF7BF2
:10AFD0000000000000000000000000000000000071
:10AFE000000000000000E739BAD6BAD6BAD6BAD601
:10AFF000BAD6BAD6BAD6BAD6BAD6BAD624210000AC
:10B00000000000000000308459CE5DEFFFFFFFFF1D
:10B010005DEFF7BD2C6300000000000000000000A1
:10B0200000000000242114A55DEFFFFFFFFF5DEF8E
:10B0300096B5E739000000000000000000000000A5
:10B040000000000000000000000000000000000000
:10B0500000000000000000000000000000000000F0
:10B0600000000000000000000000000000000000E0
:10B070000000000000000000000059CEFFFF5DEF5F
:10B0800000000000000000000000000000000000C0
:10B090000000E739FFFFFFFFF7BD000000000000E0
:10B0A00000000000000000000000000000000000A0
:10B0B00014A5FFFFFFFFBEF7AA5200002421CF7B9B
:10B0C000BAD6BEF7B29400000000000030845DEFF5
:10B0D000242100000000000000000000000000002B
:10B0E000000000000000F7BDFFFFFFFFFFFFFFFFB4
:10B0F000FFFFFFFFFFFFFFFFFFFF14A500000000A1
:10B100000000AA52FBDEFFFFFFFFFFFF59CE000049
:10B110002421CF7BBAD6BAD6E73900000000000060
:10B1200000002421FBDEFFFFFFFFFFFFFFFFFFFF0B
:10B13000FFFFBEF7308400000000000000000000A8
:10B1400000000000000000000000000000000000FF
:10B1500000000000000000000000000000000000EF
:10B1600000000000000000000000000000000000DF
:10B170000000000000000000E739FFFFFFFFFFFFB5
:10B18000308400000000000000000000000000000B
:10B190000000F7BDFFFFFFFFFFFF242100000000BC
:10B1A0000000000000000000000000000000F7BDEB
:10B1B000FFFFFFFFFFFFBAD6000000000000000005
:10B1C00000002C63BEF759CE242100000000BAD63F
:10B1D000F7BD2C632C632C632C632C632C632C63D2
:10B1E0002C632C633084FFFFFFFFFFFFFFFFFFFF97
:10B1F000FFFFFFFFFFFFFFFFBEF72421000000005D
:10B20000AA52BEF7FFFFFFFFFFFFFFFF14A50000DC
:10B21000000000000000CF7B5DEFAA52000000009C
:10B220000000F7BDFFFFFFFFFFFFFFFFFFFFFFFF76
:10B23000AA522C63BEF7AA520000000000000000D2
:10B2400000000000000000000000000000000000FE
:10B2500000000000000000000000000000000000EE
:10B2600000000000000000000000000000000000DE
:10B27000000000000000000014A5FFFFFFFFFFFF1B
:10B28000BEF72421000000000000000000000000C4
:10B29000E739FFFFFFFFFFFFFFFF14A500000000DD
:10B2A00000000000000000000000000014A5FFFFE7
:10B2B000FFFFFFFFFFFFBAD6000000000000000004
:10B2C000000000002421FBDEBAD6000000002C6341
:10B2D000FFFFFBDEBAD6BAD6BAD6BAD6BAD6BAD637
:10B2E000BAD6BAD6BEF7FFFFFFFFFFFFFFFFFFFF93
:10B2F000FFFFFFFFFFFFFFFFB294000000002421CB
:10B30000BEF7FFFFFFFFFFFFFFFFFFFF14A50000D9
:10B310000000000000000000AA525DEFAA520000E9
:10B320000000FFFFFFFFFFFFFFFFFFFFFFFFFFFF2B
:10B3300000000000CF7BBAD6000000000000000033
:10B3400000000000000000000000000000000000FD
:10B3500000000000000000000000000000000000ED
:10B3600000000000000000000000000000000000DD
:10B3700000000000000000005DEFFFFFFFFFFFFF87
:10B38000FFFF14A500000000000000000000000006
:10B39000F7BDFFFFFFFFFFFFFFFFBEF7000000004C
:10B3A00000000000000000000000E739FFFFFFFF81
:10B3B000FFFFFFFFFFFFBAD6000000000000000003
:10B3C000000000000000AA52BEF7AA5200000000D0
:10B3D000F7BDF7BD00000000000000000000000005
:10B3E0000000AA52FFFFFFFFFFFFFFFFFFFFFFFF6D
:10B3F000FFFFFFFFFFFF5DEF000000000000F7BD53
:10B40000FFFFFFFFFFFFFFFFFFFFFFFF14A500008F
:10B4100000000000000000000000B29459CE0000BF
:10B420002C63FFFFFFFFFFFFFFFFFFFFFFFFFFFF9B
:10B430000000000000005DEF0000000000000000C0
:10B4400000000000000000000000000000000000FC
:10B4500000000000000000000000000000000000EC
:10B4600000000000000000000000000000000000DC
:10B47000000000000000CF7BFFFFFFFFFFFFFFFF8A
:10B48000FFFFBEF7242100000000000000002C6335
:10B49000FFFFFFFFFFFFFFFFFFFFFFFF3084000004
:10B4A0000000000000000000000014A5FFFFFFFFE7
:10B4B000FFFFFFFFFFFFBAD6000000000000000002
:10B4C0000000000000000000E7390000000000005C
:10B4D0002421BEF7AA520000000000000000000076
:10B4E0000000BAD6FFFFFFFFFFFFFFFFFFFFFFFFD8
:10B4F000FFFFFFFFFFFFCF7B000000002421FFFFC5
:10B50000FFFFFFFFFFFFFFFFFFFFFFFF14A500008E
:10B51000000000000000000000000000E73900000B
:10B520002C63FFFFFFFFFFFFFFFFFFFFFFFFFFFF9A
:10B53000000000000000000000000000000000000B
:10B5400000000000000000000000000000000000FB
:10B5500000000000000000000000000000000000EB
:10B5600000000000000000000000000000000000DB
:10B57000000000000000BAD6FFFFFFFFFFFFFFFF43
:10B58000FFFFFFFFF7BD0000000000000000BAD67B
:10B59000FFFFFFFFFFFFFFFFFFFFFFFF5DEF00006B
:10B5A00000000000000000000000FBDEFFFFFFFFC6
:10B5B000FFFFFFFFFFFFBAD6000000000000000001
:10B5C000000000000000000000000000000000007B
:10B5D0000000B294BAD60000000000000000000095
:10B5E0002C63FFFFFFFFFFFFFFFFFFFFFFFFFFFFDA
:10B5F000FFFFFFFFBAD6000000000000CF7BFFFF77
:10B60000FFFFFFFFFFFFFFFFFFFFFFFF14A500008D
:10B61000000000000000000000000000000000002A
:10B620002C63FFFFFFFFFFFFFFFFFFFFFFFFFFFF99
:10B63000000000000000000000000000000000000A
:10B6400000000000000000000000000000000000FA
:10B6500000000000000000000000000000000000EA
:10B6600000000000000000000000000000000000DA
:10B6700000000000E739FFFFFFFFFFFFFFFFFFFFB4
:10B68000FFFFFFFFFFFFE739000000002C63FFFF13
:10B69000FFFFFFFFFFFFFFFFFFFFFFFFFFFF2C6329
:10B6A00000000000000000000000FFFFFFFFFFFFA0
:10B6B000FFFFFFFFFFFFFBDE2C632C632C632C637B
:10B6C0002C632C632C632C632C63AA5200000000B3
:10B6D000000000005DEFCF7B0000000000000000D4
:10B6E000BAD6FFFFFFFFFFFFFFFFFFFFFFFFFFFFD8
:10B6F000FFFFFFFF2C6300000000000014A5FFFF08
:10B70000FFFFFFFFFFFFFFFFFFFFFFFF14A500008C
:10B710000000000000000000000000000000000029
:10B720002C63FFFFFFFFFFFFFFFFFFFFFFFFFFFF98
:10B730000000000000000000000000000000000009
:10B7400000000000000000000000000000000000F9
:10B7500000000000000000000000000000000000E9
:10B7600000000000000000000000000000000000D9
:10B770000000000096B5FFFFFFFFFFFFFFFFFFFF88
:10B78000FFFFFFFFFFFFBAD6000000005DEFFFFFE5
:10B79000FFFFFFFFFFFFFFFFFFFFFFFFFFFFBAD627
:10B7A00000000000000000000000FFFFFFFFFFFF9F
:10B7B000FFFFFFFFFFFFBEF7BAD6BAD6BAD6FBDE51
:10B7C000FFFFFFFFFFFFFFFFFFFFBAD600000000F3
:10B7D000000000002C635DEF242100000000308495
:10B7E000FFFFFFFFFFFFFFFFFFFFFFFFFFFFFFFF69
:10B7F000FFFFF7BD000000000000000014A5FFFFE0
:10B80000FFFFFFFFFFFFFFFFFFFFFFFF14A500008B
:10B810000000000000000000000000000000000028
:10B820002C63FFFFFFFFFFFFFFFFFFFFFFFFFFFF97
:10B830000000000000000000000000000000000008
:10B8400000000000000000000000000000000000F8
:10B8500000000000000000000000000000000000E8
:10B8600000000000000000000000000000000000D8
:10B8700000000000BEF7FFFFFFFFFFFFFFFFFFFF1D
:10B88000FFFFFFFFFFFFFFFF2C63B294FFFFFFFFEF
:10B89000FFFFFFFFFFFFFFFFFFFFFFFFFFFFBEF701
:10B8A000AA5200000000000000005DEFFFFFFFFF54
:10B8B000FFFFFFFFFFFFBAD60000000000002C636F
:10B8C000FFFFFFFFFFFFFFFFFFFFF7BD00000000CE
:10B8D00000000000000059CE14A5000000005DEF3C
:10B8E000FFFFFFFFFFFFFFFFFFFFFFFFFFFFFFFF68
:10B8F000BEF7E7390000000000000000B294FFFF2F
:10B90000FFFFFFFFFFFFFFFFFFFFFFFF14A500008A
:10B910000000000000000000000000000000000027
:10B920002C63FFFFFFFFFFFFFFFFFFFFFFFFFFFF96
:10B930000000000000000000000000000000000007
:10B9400000000000000000000000000000000000F7
:10B9500000000000000000000000000000000000E7
:10B9600000000000000000000000000000000000D7
:10B9700000003084FFFFFFFFFFFFFFFFFFFFFFFF1F
:10B98000FFFFFFFFF7BD14A55DEFBEF7FFFFFFFF51
:10B99000FFFFFFFFFFFFFFFFFFFFFFFFF7BDF7BD4B
:10B9A000F7BD0000000000000000F7BDFFFFFFFF33
:10B9B000FFFFFFFFFFFFBAD60000000000002C636E
:10B9C000FFFFFFFFFFFFFFFFFFFFB294000000003B
:10B9D000000000000000E7395DEFE7393084FFFF29
:10B9E000FFFFFFFFFFFFFFFFFFFFFFFFFFFFFFFF67
:10B9F00014A500000000000000000000AA52FFFF94
:10BA0000FFFFFFFFFFFFFFFFFFFFFFFF14A5000089
:10BA10000000000000000000000000000000000026
:10BA20002C63FFFFFFFFFFFFFFFFFFFFFFFFFFFF95
:10BA30000000000000000000000000000000000006
:10BA400000000000000000000000000000000000F6
:10BA500000000000000000000000000000000000E6
:10BA600000000000000000000000000000000000D6
:10BA70000000BAD6FFFFFFFFFFFFFFFFFFFFFFFF42
:10BA8000FFFFFFFFAA522421BEF7FFFFFFFFFFFFCA
:10BA9000FFFFFFFFFFFFFFFFFFFFBEF72421E73996
:10BAA000FFFFE7390000000000002C63FFFFFFFFED
:10BAB000FFFFFFFFFFFFBAD60000000000002C636D
:10BAC000FFFFFFFFFFFFFFFFFFFFE7390000000060
:10BAD000000000000000000014A559CE5DEFFFFF3C
:10BAE000FFFFFFFFFFFFFFFFFFFFFFFFFFFFBEF7AF
:10BAF00024210000000000000000000000005DEFB5
:10BB0000FFFFFFFFFFFFFFFFFFFFFFFF14A5000088
:10BB10000000000000000000000000000000000025
:10BB20002C63FFFFFFFFFFFFFFFFFFFFFFFFFFFF94
:10BB30000000000000000000000000000000000005
:10BB400000000000000000000000000000000000F5
:10BB500000000000000000000000000000000000E5
:10BB600000000000000000000000000000000000D5
:10BB7000E739FFFFFFFFFFFFFFFFFFFFFFFFFFFFB3
:10BB8000FFFFBAD6000000003084FFFFFFFFFFFF79
:10BB9000FFFFFFFFFFFFFFFFFFFF14A500000000F6
:10BBA00059CE14A50000000000000000BAD6FFFF27
:10BBB000FFFFFFFFFFFFBAD60000000000002C636C
:10BBC000FFFFFFFFFFFFFFFF96B500000000000032
:10BBD000000000000000000024215DEFFFFFFFFFD8
:10BBE000FFFFFFFFFFFFFFFFFFFFFFFFFFFF3084AF
:10BBF0000000000000000000000000000000CF7BFB
:10BC0000FFFFFFFFFFFFFFFFFFFFFFFF14A5000087
:10BC100000000000000000002421F7BD000000002B
:10BC20002C63FFFFFFFFFFFFFFFFFFFFFFFFFFFF93
:10BC30000000000000000000000000000000000004
:10BC400000000000000000000000000000000000F4
:10BC500000000000000000000000000000000000E4
:10BC600000000000000000000000000000000000D4
:10BC700096B5FFFFFFFFFFFFFFFFFFFFFFFFFFFF87
:10BC8000FFFF30840000000000005DEFFFFFFFFFBA
:10BC9000FFFFFFFFFFFFFFFF5DEF2421000000001B
:10BCA0002C63BEF72421000000000000E739BEF736
:10BCB000FFFFFFFFFFFFBAD60000000000002C636B
:10BCC000FFFFFFFFFFFFFBDE24210000000000005C
:10BCD00000000000000000000000CF7BFFFFFFFF1E
:10BCE000FFFFFFFFFFFFFFFFFFFFFFFF5DEF000014
:10BCF0000000000000000000000000000000000044
:10BD0000F7BDFFFFFFFFFFFFFFFFFFFF14A50000D0
:10BD10000000000000000000F7BDBAD600000000DF
:10BD20002C63FFFFFFFFFFFFFFFFFFFFFFFFFFFF92
:10BD30000000000000000000000000000000000003
:10BD400000000000000000000000000000000000F3
:10BD500000000000000000000000000000000000E3
:10BD6000000000000000000000000000000024218E
:10BD7000BEF7FFFFFFFFFFFFFFFFFFFFFFFFFFFF1C
:10BD8000BEF700000000000000002C63FFFFFFFF73
:10BD9000FFFFFFFFFFFFFFFF3084000000000000F7
:10BDA00000005DEF30840000000000000000AA5297
:10BDB0005DEFFFFFFFFF5DEF000000000000CF7BA5
:10BDC000FFFFFFFFFBDE2421000000000000000059
:10BDD000000000000000000000000000BAD6FFFFD5
:10BDE000FFFFFFFFFFFFFFFFFFFFFFFF2C630000D0
:10BDF0000000000000000000000000000000000043
:10BE0000000096B5FFFFFFFFFFFFFFFF96B50000A4
:10BE1000000000002C63BAD6FBDE242100000000E5
:10BE20002C63FFFFFFFFFFFFFFFFFFFFFFFFFFFF91
:10BE30000000000000000000000000000000000002
:10BE400000000000000000000000000000000000F2
:10BE500000000000000000000000000000000000E2
:10BE6000000000000000000000000000000030841E
:10BE7000FFFFFFFFFFFFFFFFFFFFFFFFFFFFFFFFD2
:10BE800014A500000000000000000000BAD6FFFF6B
:10BE9000FFFFFFFFFFFF5DEF00000000000000005C
:10BEA0000000B2945DEF0000000000000000000000
:10BEB000242114A5BEF7FFFFBAD614A596B5BEF788
:10BEC0005DEF14A50000000000000000000000006D
:10BED000000000000000000000000000E739FFFF44
:10BEE000FFFFFFFFFFFFFFFFFFFFBAD600000000CC
:10BEF0000000000000000000000000000000000042
:10BF0000000000002C63BAD6FFFFFFFFBEF796B516
:10BF100014A5FBDE5DEF14A500000000CF7BBAD6B0
:10BF2000FBDEFFFFFFFFFFFFFFFFFFFFFFFFFFFF46
:10BF3000BAD6BAD6BAD6AA52000000000000000055
:10BF400000000000000000000000000000000000F1
:10BF500000000000000000000000000000000000E1
:10BF600000000000000000000000000000005DEF85
:10BF7000FFFFFFFFFFFFFFFFFFFFFFFFFFFFFFFFD1
:10BF8000E739000000000000000000002C63FFFF04
:10BF9000FFFFFFFFFFFF2C63000000000000000018
:10BFA00000002421BEF730840000000000000000E3
:10BFB0000000000000002C6314A514A514A52C6338
:10BFC0000000000000000000000000000000000071
:10BFD000000000000000000000000000000014A5A8
:10BFE000FFFFFFFFFFFFFFFFFFFFAA52000000005F
:10BFF0000000000000000000000000000000000041
:10C000000000000000000000E739308414A514A5EA
:10C01000B2942C630000000000000000E7392C639C
:10C02000B294FFFFFFFFFFFFFFFFFFFFFFFFFBDEFD
:10C030002C632C632C63242100000000000000000E
:10C0400000000000000000000000000000000000F0
:10C0500000000000000000000000000000000000E0
:10C060000000000000000000000000002C63FFFF43
:10C07000FFFFFFFFFFFFFFFFFFFFFFFFFFFF59CEA7
:10C080000000000000000000000000000000F7BDFC
:10C09000FFFFFFFFBAD60000000000000000000014
:10C0A00000000000F7BDBAD600000000000000004C
:10C0B0000000000000000000000000000000000080
:10C0C0000000000000000000000000000000000070
:10C0D000000000000000000000000000000024211B
:10C0E000BEF7FFFFFFFFFFFFF7BD000000000000ED
:10C0F0000000000000000000000000000000000040
:10C10000000000000000000000000000000000002F
:10C11000000000000000000000000000000000001F
:10C120002C63FFFFFFFFFFFFFFFFFFFFFFFFFBDEB3
:10C1300000000000000000000000000000000000FF
:10C1400000000000000000000000000000000000EF
:10C1500000000000000000000000000000000000DF
:10C1600000000000000000000000000059CEFFFFAA
:10C17000FFFFFFFFFFFFFFFFFFFFFFFFFFFF308419
:10C180000000000000000000000000000000E7398F
:10C19000FFFFFFFF2C630000000000000000000014
:10C1A00000000000AA52FFFF2C6300000000000006
:10C1B000000000000000000000000000000000007F
:10C1C000000000000000000000000000000000006F
:10C1D000000000000000000000000000000000005F
:10C1E0003084FFFFFFFFBEF72421000000000000A5
:10C1F000000000000000000000000000000000003F
:10C20000000000000000000000000000000000002E
:10C21000000000000000000000000000000000001E
:10C220000000AA52F7BDBEF7FFFFFFFFFFFFFFFFB1
:10C2300000000000000000000000000000000000FE
:10C2400000000000000000000000000000000000EE
:10C2500000000000000000000000000000000000DE
:10C2600000000000000000000000E739FFFFFFFFB2
:10C27000FFFFFFFFFFFFFFFFFFFFFFFFBEF7000015
:10C2800000000000000000000000000000000000AE
:10C2900096B5BAD6000000000000000000000000C3
:10C2A000000000000000FBDEF7BD00000000000001
:10C2B000000000000000000000000000000000007E
:10C2C000000000000000000000000000000000006E
:10C2D000000000000000000000000000000000005E
:10C2E0000000BAD6FFFF14A5000000000000000007
:10C2F000000000000000000000000000000000003E
:10C30000000000000000000000000000000000002D
:10C31000000000000000000000000000000000001D
:10C32000000000000000242114A5BEF7FFFFFFFF5E
:10C3300000000000000000000000000000000000FD
:10C3400000000000000000000000000000000000ED
:10C3500000000000000000000000000000000000DD
:10C3600000000000000000000000E7392C632C638F
:10C370002C632C632C632C632C632C63AA52000067
:10C3800000000000000000000000000000000000AD
:10C3900024212C63000000000000000000000000C9
:10C3A000000000000000E739E7390000000000004D
:10C3B000000000000000000000000000000000007D
:10C3C000000000000000000000000000000000006D
:10C3D000000000000000000000000000000000005D
:10C3E00000002C635DEF242100000000000000002D
:10C3F000000000000000000000000000000000003D
:10C40000000000000000000000000000000000002C
:10C41000000000000000000000000000000000001C
:10C4200000000000000000000000242114A5BEF759
:10C4300000000000000000000000000000000000FC
:10C4400000000000000000000000000000000000EC
:10C4500000000000000000000000000000000000DC
:10C4600000000000000000000000000000000000CC
:10C4700000000000000000000000000000000000BC
:10C4800000000000000000000000000000000000AC
:10C49000000000000000000000000000000000009C
:10C4A000000000000000000000000000000000008C
:10C4B000000000000000000000000000000000007C
:10C4C000000000000000000000000000000000006C
:10C4D000000000000000000000000000000000005C
:10C4E00000000000E739000000000000000000002C
:10C4F000000000000000000000000000000000003C
:10C50000000000000000000000000000000000002B
:10C51000000000000000000000000000000000001B
:10C520000000000000000000000000000000E739EB
:10C5300000000000000000000000000000000000FB
:10C5400000000000000000000000000000000000EB
:10C5500000000000000000000000000000000000DB
:10C5600000000000000000000000000000000000CB
:10DD6000000000F800F800F800F800F800F800F8EB
:10DD700000F800F800F800F800F800F800F800F8E3
:10DD800000F800F800F80000000000000000E007C4
:10DD9000E007E007E007E007E007E007E007E0074B
:10DDA000E007E007E007E007E007E007E007E0073B
:10DDB000E00700000000000000001F001F001F001F
:10DDC0001F001F001F001F001F001F001F001F005B
:10DDD0001F001F001F001F001F001F001F0000006A
:10DDE0000000000000000000000000000000000033
:10DDF0000000000000000000000000000000000023
:10DE00000000000000000000000000000000000012
:10DE10000000000000000000000000000000000002
:10DE200000000000000000000000000000000000F2
:10DE300000000000000000000000000000000000E2
:10DE400000000000000000000000000000000000D2
:10DE500000000000000000000000000000000000C2
:10DE6000000000F800F800F800F800F800F800F8EA
:10DE700000F800F800F800F800F800F800F800F8E2
:10DE800000F800F800F80000000000000000E007C3
:10DE9000E007E007E007E007E007E007E007E0074A
:10DEA000E007E007E007E007E007E007E007E0073A
:10DEB000E00700000000000000001F001F001F001E
:10DEC0001F001F001F001F001F001F001F001F005A
:10DED0001F001F001F001F001F001F001F00000069
:10DEE0000000000000000000000000000000000032
:10DEF0000000000000000000000000000000000022
:10DF00000000000000000000000000000000000011
:10DF10000000000000000000000000000000000001
:10DF200000000000000000000000000000000000F1
:10DF300000000000000000000000000000000000E1
:10DF400000000000000000000000000000000000D1
:10DF500000000000000000000000000000000000C1
:10DF6000000000F800F800F800F800F800F800F8E9
:10DF700000F800F800F800F800F800F800F800F8E1
:10DF800000F800F800F80000000000000000E007C2
:10DF9000E007E007E007E007E007E007E007E00749
:10DFA000E007E007E007E007E007E007E007E00739
:10DFB000E00700000000000000001F001F001F001D
:10DFC0001F001F001F001F001F001F001F001F0059
:10DFD0001F001F001F001F001F001F001F00000068
:10DFE0000000000000000000000000000000000031
:10DFF0000000000000000000000000000000000021
:10E000000000000000000000000000000000000010
:10E010000000000000000000000000000000000000
:10E0200000000000000000000000000000000000F0
:10E0300000000000000000000000000000000000E0
:10E0400000000000000000000000000000000000D0
:10E0500000000000000000000000000000000000C0
:10E06000000000F800F800F800F800F800F800F8E8
:10E0700000F800F800F800F800F800F800F800F8E0
:10E0800000F800F800F80000000000000000E007C1
:10E09000E007E007E007E007E007E007E007E00748
:10E0A000E007E007E007E007E007E007E007E00738
:10E0B000E00700000000000000001F001F001F001C
:10E0C0001F001F001F001F001F001F001F001F0058
:10E0D0001F001F001F001F001F001F001F00000067
:10E0E0000000000000000000000000000000000030
:10E0F0000000000000000000000000000000000020
:10E10000000000000000000000000000000000000F
:10E1100000000000000000000000000000000000FF
:10E1200000000000000000000000000000000000EF
:10E1300000000000000000000000000000000000DF
:10E1400000000000000000000000000000000000CF
:10E1500000000000000000000000000000000000BF
:10E16000000000F800F800F800F800F800F800F8E7
:10E1700000F800F800F800F800F800F800F800F8DF
:10E1800000F800F800F80000000000000000E007C0
:10E19000E007E007E007E007E007E007E007E00747
:10E1A000E007E007E007E007E007E007E007E00737
:10E1B000E00700000000000000001F001F001F001B
:10E1C0001F001F001F001F001F001F001F001F0057
:10E1D0001F001F001F001F001F001F001F00000066
:10E1E000000000000000000000000000000000002F
:10E1F000000000000000000000000000000000001F
:10E20000000000000000000000000000000000000E
:10E2100000000000000000000000000000000000FE
:10E2200000000000000000000000000000000000EE
:10E2300000000000000000000000000000000000DE
:10E2400000000000000000000000000000000000CE
:10E2500000000000000000000000000000000000BE
:10E26000000000F800F800F800F800F800F800F8E6
:10E2700000F800F800F800F800F800F800F800F8DE
:10E2800000F800F800F80000000000000000E007BF
:10E29000E007E007E007E007E007E007E007E00746
:10E2A000E007E007E007E007E007E007E007E00736
:10E2B000E00700000000000000001F001F001F001A
:10E2C0001F001F001F001F001F001F001F001F0056
:10E2D0001F001F001F001F001F001F001F00000065
:10E2E000000000000000000000000000000000002E
:10E2F000000000000000000000000000000000001E
:10E30000000000000000000000000000000000000D
:10E3100000000000000000000000000000000000FD
:10E3200000000000000000000000000000000000ED
:10E3300000000000000000000000000000000000DD
:10E3400000000000000000000000000000000000CD
:10E3500000000000000000000000000000000000BD
:10E36000000000F800F800F800F800F800F800F8E5
:10E3700000F800F800F800F800F800F800F800F8DD
:10E3800000F800F800F80000000000000000E007BE
:10E39000E007E007E007E007E007E007E007E00745
:10E3A000E007E007E007E007E007E007E007E00735
:10E3B000E00700000000000000001F001F001F0019
:10E3C0001F001F001F001F001F001F001F001F0055
:10E3D0001F001F001F001F001F001F001F00000064
:10E3E000000000000000000000000000000000002D
:10E3F000000000000000000000000000000000001D
:10E40000000000000000000000000000000000000C
:10E4100000000000000000000000000000000000FC
:10E96000000000000000000102030406070809007F
:10E9700090E9000800000020B0000000BC2E000854
:10E9800040EA0008B0000020000C0000CC2E000877
:10E99000FFFF0000000000009D33000800000000A1
:10E9A00000000000C5340008D53300088134000899
:10E9B0003D34000899330008C72300087D1F000874
:10E9C00061280008FD1F0008811F00082329000896
:10E9D0001D230008D12A0008252300082929000842
:10E9E0007920000859220008B521000811220008EA
:10E9F000E122000835230008592B00088D23000868
:10EA00009D2300080000000040000000C00000003E
:10EA100080000000000000002000000060000000F6
:10EA2000E0000000A0000000010000001000000055
:10EA3000000000000024F4000000000000000000BE
:040000050800019559
:00000001FF
